:020000040800F2
:1000000000800120ED090008C9080008CB0800089D
:10001000CD080008CF080008D10800080000000043
:10002000000000000000000000000000D3080008ED
:10003000D508000800000000D7080008D90800080B
:100040003D0A00083D0A00083D0A00083D0A000874
:100050003D0A00083D0A00083D0A00083D0A000864
:100060003D0A00083D0A00083D0A00083D0A000854
:100070003D0A00083D0A00083D0A00083D0A000844
:100080003D0A00083D0A00083D0A00083D0A000834
:100090003D0A00083D0A00083D0A00083D0A000824
:1000A0003D0A00083D0A00083D0A00083D0A000814
:1000B0003D0A00083D0A00083D0A00083D0A000804
:1000C0003D0A00083D0A00083D0A00083D0A0008F4
:1000D0003D0A00083D0A00083D0A00083D0A0008E4
:1000E0003D0A00083D0A00083D0A00083D0A0008D4
:1000F0003D0A00083D0A00083D0A00083D0A0008C4
:100100003D0A00083D0A00083D0A00083D0A0008B3
:100110003D0A00083D0A00083D0A00083D0A0008A3
:100120003D0A00083D0A00083D0A00083D0A000893
:100130003D0A00083D0A00083D0A00083D0A000883
:100140003D0A00083D0A00083D0A00083D0A000873
:100150003D0A00083D0A00083D0A00083D0A000863
:100160003D0A00083D0A00083D0A00083D0A000853
:100170003D0A00083D0A00083D0A00080000000092
:080180003D0A00083D0A0008D9
:1001880010B5054C237833B9044B13B10448AFF3C9
:1001980000800123237010BD6408002000000000C7
:1001A800E056000808B5034B1BB103490348AFF3F9
:1001B800008008BD0000000068080020E056000824
:1001C80053B94AB9002908BF00281CBF4FF0FF31B6
:1001D8004FF0FF3000F074B9ADF1080C6DE904CEB2
:1001E80000F006F8DDF804E0DDE9022304B070470A
:1001F8002DE9F047089E0D4604468846002B4DD150
:100208008A42944668D9B2FA82F252B101FA02F3EC
:10021800C2F1200120FA01F10CFA02FC41EA0308BC
:1002280094404FEA1C45210CB8FBF5FE1FFA8CF7E9
:1002380005FB1E8341EA03430EFB07F199420BD9E4
:100248001CEB03030EF1FF3080F01E81994240F24F
:100258001B81AEF1020E63445B1AA4B2B3FBF5F046
:1002680005FB103344EA034400FB07F7A7420AD909
:100278001CEB040400F1FF3380F00881A74240F230
:10028800058164440238E41B40EA0E4000211EB197
:10029800D4400023C6E90043BDE8F0878B4208D963
:1002A800002E00F0EE800021C6E900050846BDE8F2
:1002B800F087B3FA83F100294AD1AB4202D38242D4
:1002C80000F2F980841A65EB030301209846002E9A
:1002D800E2D0C6E90048DFE702B9FFDEB2FA82F2EF
:1002E800002A40F09180A1EB0C054FEA1C471FFA49
:1002F8008CFE0121B5FBF7F307FB1350250C45EAEB
:1003080000450EFB03F0A84208D91CEB050503F1D4
:10031800FF3802D2A84200F2CB8043462D1AA4B27D
:10032800B5FBF7F007FB105544EA05440EFB00FE49
:10033800A64508D91CEB040400F1FF3502D2A645F6
:1003480000F2BB802846A4EB0E0440EA03409EE777
:10035800C1F120078B4022FA07FC4CEA030C20FA73
:1003680007F405FA01F31C43FD404FEA1C4900FA63
:1003780001F3B5FBF9F8200C1FFA8CFE09FB1855A0
:1003880040EA054508FB0EF0A84202FA01F20BD933
:100398001CEB050508F1FF3A80F08880A84240F27E
:1003A8008580A8F1020865442D1AA4B2B5FBF9F0BE
:1003B80009FB105544EA054500FB0EFEAE4508D979
:1003C8001CEB050500F1FF346CD2AE456AD9023842
:1003D800654440EA0840A0FB0294A5EB0E05A5423F
:1003E800C846A64656D353D05EB1B3EB080265EBB8
:1003F8000E0505FA07F722FA01F3CD401F43C6E9B7
:1004080000750021BDE8F087C2F1200320FA03F14E
:100418000CFA02FC25FA03F395400D434FEA1C47FA
:100428001FFA8CFEB3FBF7F107FB11302B0C43EAE4
:10043800004301FB0EF0984204FA02F408D91CEBC1
:10044800030301F1FF382FD298422DD902396344B2
:100458001B1AADB2B3FBF7F007FB103345EA0345AF
:1004680000FB0EF3AB4208D91CEB050500F1FF3881
:1004780016D2AB4214D902386544ED1A40EA01415C
:1004880038E73146304607E78646E5E61846FAE695
:100498004B45A9D2B9EB020864EB0C0E0138A3E76F
:1004A8004046EAE7204694E74146D1E7D0467BE755
:1004B800023B654432E7084609E76444023842E7EC
:1004C800704700BF00B58BB00023059306930793D0
:1004D8000893099303F1804303F50433DA6C42F07F
:1004E8000402DA64DA6C02F004020192019ADA6C0E
:1004F80042F08002DA64DA6C02F080020292029A18
:10050800DA6C42F00102DA64DA6C02F0010203925A
:10051800039ADA6C42F00202DA64DB6C03F002033D
:100528000493049B4FF4005305934FF4041306936C
:1005380005A9034801F068F80BB05DF804FB00BF9B
:100548000008004872B6FEE700B597B044220021C3
:1005580005A804F08BFE00230093019302930393F4
:1005680004934FF4007001F063F920BB0223059354
:100578004FF480720892102209920F93109301226F
:1005880011920A221292072213921493159305A826
:1005980001F038FA88B90F2300930323019300234D
:1005A8000293039304930421684601F039FD30B99E
:1005B80017B05DF804FBFFF7C5FFFFF7C3FFFFF7B0
:1005C800C1FF000070B5ADF5067D00F083FFFFF7B1
:1005D800BBFFFFF777FF00F08DF800F0A3F900F0FC
:1005E800AFF803F08FF84FF6FF7000F043FB4FF4BD
:1005F8000C7004F083FB0122384904F0A1F80028AC
:1006080039D001230293102301934FF6FF7300930F
:100618000023334A19461E2000F00AFB4FF40C70E1
:1006280004F06CFB064613222E4904F0B7F880B399
:1006380001230293102101914FF6FF7300930023C9
:10064800294A1E2000F0F4FA002106914FF4FE72A8
:1006580007A804F00BFEB5890DF116032A4606A972
:10066800304604F0AEF9BDF81630002B34D13046D0
:1006780004F0D4FAFEE701230293102301934FF606
:10068800FF7300930023194A19461E2000F0D0FA80
:10069800C4E701230293102101914FF6FF730093E1
:1006A8000023134A1E2000F0C3FACDE7D8001E30FD
:1006B80080B201230293102301934FF6FF73009336
:1006C800002306AA125D202100F012FA0134E4B2D8
:1006D800A3B2AB42EAD3CAE70024F9E7F856000808
:1006E800FC5600081457000820570008085700084F
:1006F8002C57000808B51048104B03604FF482735C
:100708004360002383604FF4E062C2600361436189
:100718004FF400728261C3610362436283620722FD
:10072800C26203630823436302F005FA00B908BDF7
:10073800FFF708FFFBE700BF8008002000300140FA
:1007480008B51048104B03604FF4827343600023D0
:1007580083604FF4E062C2600222026101224261BA
:100768004FF400728261C3610362436283620722AD
:10077800C2620363436302F0DEF900B908BDFFF704
:10078800E1FEFBE7E4080020003C004000B58BB028
:100798000023059306930793089309930368254A52
:1007A800934205D0244A934223D00BB05DF804FB52
:1007B800224B1A6E42F480521A661A6E02F4805264
:1007C8000192019ADA6C42F00102DA64DB6C03F000
:1007D80001030293029BA02305930223069303239C
:1007E80008930523099305A94FF0904000F00CFFEA
:1007F800DBE7124B9A6D42F400429A659A6D02F457
:1008080000420392039ADA6C42F00402DA64DB6C69
:1008180003F004030493049B4FF4E053059302236D
:100828000693032308930623099305A9044800F0B7
:10083800EBFEBAE700300140003C004000100240E7
:100848000008004808B51048104B03604FF4827345
:100858004360002383604FF4E062C2600361436138
:100868004FF4007282613822C2610362436283627C
:100878000722C26203630823436302F05CF900B9EC
:1008880008BDFFF75FFEFBE7E4080020003C0040DE
:1008980082B00A4B1A6E42F001021A661A6E02F012
:1008A80001020092009A9A6D42F080529A659B6DFF
:1008B80003F080530193019B02B07047001002407F
:1008C800FEE7FEE7FEE7FEE7FEE770477047704782
:1008D80008B500F015FE08BD10B503460C4A0D49D1
:1008E8000D48006840B10C4800680344521A93420E
:1008F80006D8094A136010BD0748084C0460F2E79F
:1009080004F0D2F90C2303604FF0FF30F3E700BF87
:10091800008001200010000048090020580A00202B
:100928007047000008B50B480B4B03604FF4E133E8
:10093800436000238360C36003610C2242618361CA
:10094800C3610362436202F0ACFE00B908BDFFF761
:10095800F9FDFBE74C0900200044004010B5AAB09F
:1009680004460021259126912791289129918822D2
:1009780003A804F07BFC2268184B9A4201D02AB0E5
:1009880010BD0223039303A801F096FD10BB144B7E
:100998009A6D42F400329A659A6D02F4003201921F
:1009A800019ADA6C42F00102DA64DB6C03F00103AD
:1009B8000293029B0C23259302232693002327935B
:1009C800032328930723299325A94FF0904000F08B
:1009D8001BFED4E7FFF7B6FDD9E700BF004400408F
:1009E80000100240DFF834D0FFF79AFF0C480D4999
:1009F8000D4A002302E0D458C4500433C4188C4272
:100A0800F9D30A4A0A4C002301E013600432A242D7
:100A1800FBD304F04FF9FFF7D5FDFEE70080012076
:100A28000000002064080020188C000864080020DA
:100A3800580A0020FEE708B500F08EFA08BD08B590
:100A480000F09EFA08BD10B5044600F05DFA204695
:100A580000F082FA00F062FA10BD08B500F03EFA24
:100A680008BDF8B507460D4616461C462A20FFF76E
:100A7800EAFF3846FFF7E3FF3046FFF7E0FF2B2099
:100A8800FFF7E1FF05F1140080B2FFF7D8FF04F18A
:100A9800140080B2FFF7D3FF2C20FFF7D4FFF8BD76
:100AA8002DE9F84381460F4615469846BDF8206063
:100AB800013B013A9BB292B2FFF7D3FF08E0304600
:100AC800FFF7BDFF0134A4B2AC42F8D30137BFB27F
:100AD800474501D24C46F7E7BDE8F88310B50B4609
:100AE80014460246FFF7BDFF2046FFF7A8FF10BDDA
:100AF8002DE9F04F87B0834603910093BDF840304D
:100B080002939DF844301D4601939DF848905F0874
:100B180013F00E0318BF012303EB151303FB05F3B2
:100B28000493203AD3B205932B4600EB550292B2B8
:100B38000B449BB2013B013A9BB292B2FFF791FF83
:100B48005E464FF0000A554649E0059B03EB430318
:100B5800334A02EB830313F80A8000241DE0314B6B
:100B6800059A03EB021313F80A80F6E7059B03EBDB
:100B780043032D4A02EB031313F80A80EDE70298AA
:100B8800FFF75DFF0135EDB2B5FBF7F307FB135334
:100B980013F0FF033FD00134E4B2072C1BD8B9F19E
:100BA800000F08D148FA04F313F0010FE7D00098BA
:100BB800FFF745FFE6E748FA04F313F0010F24D1E5
:100BC8000136B6B2A6EB0B03BB42E4D1039B01335B
:100BD8009BB203935E460AF1010A1FFA8AFA049B44
:100BE8009A451AD2019B0C2BAFD0019B102BB6D083
:100BF800019B182BBAD0019B202B0ED10B4B059AC9
:100C080003EB821313F80A80A7E7009A039930468A
:100C1800FFF764FFD4E71D46DDE707B0BDE8F08FB6
:100C28007C570008F05B0008E0610008B07300081A
:100C38002DE9F04784B00446884615461F46BDF89E
:100C480030A09DF834609DF838900DE0CDF80890FC
:100C58000196CDF800A03B4641462046FFF748FFE5
:100C680004EB5604A4B201352A78002AEED104B068
:100C7800BDE8F08710B582B0044600F0CBF800F06C
:100C880031F96420FFF7E9FE00F035F96420FFF739
:100C9800E4FE00F08BF96420FFF7DFFE1120FFF778
:100CA800D2FE7820FFF7D9FE3620FFF7CCFE0020D1
:100CB800FFF7C1FE3A20FFF7C6FE0520FFF7BBFE8F
:100CC800B220FFF7C0FE0C20FFF7B5FE0C20FFF79F
:100CD800B2FE0020FFF7AFFE3320FFF7ACFE332053
:100CE800FFF7A9FEB720FFF7AEFE3520FFF7A3FEFA
:100CF800BB20FFF7A8FE3220FFF79DFEC220FFF7BA
:100D0800A2FE0120FFF797FEC320FFF79CFE1520E7
:100D1800FFF791FEC420FFF796FE2020FFF78BFE19
:100D2800C620FFF790FE0F20FFF785FED020FFF7C3
:100D38008AFEA420FFF77FFEA120FFF77CFEE020BB
:100D4800FFF781FED020FFF776FE0820FFF773FE3D
:100D58000E20FFF770FE0920FFF76DFE0920FFF750
:100D68006AFE0520FFF767FE3120FFF764FE332097
:100D7800FFF761FE4820FFF75EFE1720FFF75BFED6
:100D88001420FFF758FE1520FFF755FE3120FFF716
:100D980052FE3420FFF74FFEE120FFF754FED0202B
:100DA800FFF749FE0820FFF746FE0E20FFF743FE37
:100DB8000920FFF740FE0920FFF73DFE1520FFF749
:100DC8003AFE3120FFF737FE3320FFF734FE482084
:100DD800FFF731FE1720FFF72EFE1420FFF72BFE3A
:100DE8001520FFF728FE3120FFF725FE3420FFF7F6
:100DF80022FE2120FFF727FE2920FFF724FE00947A
:100E08004FF48C73F02200210846FFF749FE02B028
:100E180010BD000070B588B00023039304930593B8
:100E28000693079303F1804303F50433DA6C42F029
:100E38000102DA64DA6C02F001020192019ADA6CBA
:100E480042F00202DA64DB6C03F002030293029BB5
:100E580001224FF480714FF0904000F0DBFC1E4DF2
:100E680001224FF48061284600F0D4FC01221021B1
:100E7800284600F0CFFC01222021284600F0CAFCB9
:100E88004FF4807303930124049405940226069674
:100E980003A94FF0904000F0B7FB4FF48063039331
:100EA80004940594069603A9284600F0ADFB102388
:100EB800039304940594069603A9284600F0A4FB1E
:100EC8002023039304940594069603A9284600F06A
:100ED8009BFB08B070BD00BF0004004808B500F0D7
:100EE80021FB08BD08B500224FF480714FF09040F7
:100EF80000F090FC08BD08B501224FF480714FF056
:100F0800904000F087FC08BD08B500224FF48061CE
:100F1800014800F07FFC08BD0004004808B5012224
:100F28004FF48061014800F075FC08BD00040048DA
:100F380008B500221021024800F06CFC08BD00BF73
:100F48000004004808B501221021024800F062FCA4
:100F580008BD00BF0004004800B583B08DF8070045
:100F6800FFF7E6FF0A2301220DF10701034801F00C
:100F780051FEFFF7E7FF03B05DF804FB800800208F
:100F880000B583B0030A8DF804308DF80500FFF72B
:100F9800CFFF0A23022201A9034801F03BFEFFF715
:100FA800D1FF03B05DF804FB8008002008B50122DA
:100FB8002021024800F02EFC08BD00BF00040048B4
:100FC800F8B507460C4615461E4600F043FAFF20C2
:100FD80000F000FA00F048FA47F0400000F0FAF993
:100FE800200E00F0F7F9C4F3074000F0F3F9C4F35A
:100FF800072000F0EFF9E0B200F0ECF9284600F025
:10100800E9F90024FF2000F0E5F905460134E4B2CF
:10101800C82C01D8FF28F5D00EB92846F8BD00F035
:1010280019FAFF2000F0D6F9F7E7000030B583B0D1
:10103800FFF786FB00F0E4F900F00CFAFFF702FC7A
:10104800642000F01BFA002404E0FF2000F0C2F93D
:101058000134A4B2092CF8D90024012395220021D7
:101068000846FFF7ADFF0134A4B2012801D0C72C10
:10107800F3D9C82800F0B18000F0F6F901238722DF
:101088004FF4D5710820FFF79BFF0446052804D0CC
:1010980001284DD0204603B030BD524B01221A70B2
:1010A80000F0D8F9FF2000F095F90025012300226F
:1010B80011463720FFF784FF0446FF28EAD00123B2
:1010C800002211462920FFF77BFF0135ADB210B190
:1010D800B5F5C87FEAD3B5F5C87F12D1002401233E
:1010E800002211461846FFF76BFF0134A4B210B175
:1010F800B4F5C87FF3D3B4F5C87F70D0394B00225C
:101108001A70FFF71DFBFF2000F064F901239522F8
:1011180000213B20FFF754FF04460028BAD10123E1
:1011280095224FF400711020FFF74AFF0446B1E7FB
:10113800FF2000F04FF9FF2000F04CF9FF2000F0ED
:1011480049F9FF2000F046F900F084F9FF2000F08B
:1011580041F90123002211463720FFF731FF0446E9
:10116800012897D1012300224FF080412920FFF761
:1011780027FF0028EDD100231A4619463A20FFF729
:101188001FFF044610BBFF2000F024F905468DF828
:101198000000FF2000F01EF98DF80100FF2000F08C
:1011A80019F98DF80200FF2000F014F98DF80300FA
:1011B80000F050F9FF2000F00DF915F0400F08D0AD
:1011C800084B04221A70FFF7BBFA63E700F042F9F4
:1011D80060E7044B02221A70F5E701245AE701245C
:1011E80058E700BFD409002008B500F0F3F808BD9F
:1011F80070B506460D46FF20FFF7F6FFFE28FAD128
:1012080005E0FF20FFF7F0FF06F8010B25466B1EEF
:101218009CB2002DF5D1FF20FFF7E6FFFF20FFF776
:10122800E3FF002070BD38B505460C46FF20FFF7E8
:10123800DBFFFF28FAD12046FFF7D6FFFD2C12D09E
:10124800002404E0285DFFF7CFFF0134A4B2B4F511
:10125800007FF7D3FF20FFF7C7FFFF20FFF7C4FF8A
:10126800FF20FFF7C1FF002038BD70B505460C46CA
:10127800164600F0EFF8FF20FFF7B6FF00F0F4F88D
:10128800FF20FFF7B1FFFF28FAD145F04000FFF734
:10129800ABFF200EFFF7A8FFC4F30740FFF7A4FF3A
:1012A800C4F30720FFF7A0FFE0B2FFF79DFF304629
:1012B800FFF79AFF0C2D06D0FF20FFF795FF10F0DF
:1012C800800FF9D170BDFF20FFF78EFFF4E700B55E
:1012D80085B0012200210920FFF7C7FF10216846C9
:1012E800FFF786FF00F0B6F8FF20FFF77DFF9DF8B7
:1012F800003003F0C003402B03D0002005B05DF898
:1013080004FB9DF809009DF8083000EB032080B22B
:10131800013080B28002F1E770B50446012A06D098
:10132800164601221220FFF7A0FF002511E0012236
:101338001120FFF79AFF4FF400712046FFF758FF7E
:101348000EE04FF400712046FFF752FF04F50074D9
:101358000135B542F5D3012200210C20FFF785FFA6
:1013680000F078F8FF20FFF73FFF70BD70B5044626
:101378000D46012A11D01646012200213720FFF719
:1013880074FF012231461720FFF76FFF012229461B
:101398001920FFF76AFF00250FE001221820FFF748
:1013A80064FFFE212046FFF73EFF0CE0FC212046AB
:1013B800FFF739FF04F500740135B542F6D3FD2176
:1013C8000020FFF730FF00F045F8FF20FFF70CFF83
:1013D80070BD000000B587B08DF80F004FF47A7328
:1013E800009301230DF117020DF10F01034801F0DD
:1013F80010FD9DF8170007B05DF804FBE408002015
:1014080030B587B0002401940294039404940594A1
:101418000E4BDA6C42F00802DA64DB6C03F0080366
:101428000093009B0A4D01220421284600F0F2F99E
:10143800042301930123029303940223049301A933
:10144800284600F0E1F807B030BD00BF00100240A8
:10145800000C004808B501220421024800F0DAF91E
:1014680008BD00BF000C004808B50022042102484E
:1014780000F0D0F908BD00BF000C004808B500F026
:1014880051F808BD104B1B780BB90120704710B5F7
:1014980004464FF47A70B0FBF3F30C4A1068B0FBC3
:1014A800F3F000F09DF868B90F2C01D901200AE08B
:1014B800002221464FF0FF3000F05AF8044B1C6020
:1014C800002000E0012010BD0400002000000020E2
:1014D8000800002010B5094A136843F480731360AC
:1014E800032000F033F80020FFF7CCFF10B10124EF
:1014F800204610BD0446FFF7CBF9F9E7002002406B
:10150800034B1B78034A11680B441360704700BFF4
:1015180004000020D8090020014B1868704700BF5C
:10152800D809002038B50446FFF7F6FF0546B4F1A0
:10153800FF3F02D0044B1B781C44FFF7EDFF401B14
:10154800A042FAD338BD00BF04000020074AD36880
:1015580023F4E0631B041B0C000200F4E060034367
:1015680043F0BF6343F40033D360704700ED00E0FD
:1015780000B5194BDB68C3F30223C3F1070CBCF1B8
:10158800040F28BF4FF0040C03F1040EBEF1060F40
:1015980018D9033B4FF0FF3E0EFA0CFC21EA0C0170
:1015A80099400EFA03F322EA0303194300280BDBE0
:1015B8000901C9B200F1604000F5614080F80013EC
:1015C8005DF804FB0023E5E700F00F000901C9B24C
:1015D800024B1954F4E700BF00ED00E014ED00E001
:1015E8000138B0F1807F0BD24FF0E0235861054AF3
:1015F800F02182F823100020986107221A617047B1
:101608000120704700ED00E070B582B000236EE065
:1016180085685E000324B44025EA0405CC68B4401C
:101628002C438460456825EA0C054C68C4F3001413
:101638009C402C4344606DE0C56A25EA0C0CC4F359
:10164800C0049C4044EA0C04C46269E0DD08083523
:1016580050F8256003F007044FEA840C0F2404FABD
:101668000CF426EA040E0C6904FA0CF444EA0E049D
:1016780040F825406CE0062400E0002404FA0EF44B
:101688002C430CF1020C5F4D45F82C405E4CA568CC
:10169800D44325EA0206D1F804C01CF4801F01D007
:1016A80042EA0506584DAE60ED6804EA0506D1F831
:1016B80004C01CF4001F01D042EA0506524DEE603A
:1016C8006D6804EA0506D1F804C01CF4003F01D097
:1016D80042EA05064C4D6E602D682C404E6816F4A3
:1016E800803F01D042EA0504474A146001330A6882
:1016F80032FA03F400F083804FF0010C0CFA03FC7B
:101708001CEA0202F2D04C6804F00304013C012CEC
:101718007FF67EAF4C6804F0030EBEF1030F8BD04A
:101728004C6804F00304032C0CD0C4685D004FF02F
:10173800030C0CFA05FC24EA0C0C8C68AC4044EA57
:101748000C04C4604C6804F00304022C3FF47EAF20
:1017580004684FEA430E4FF0030C0CFA0EFC24EA1F
:101768000C0C4C6804F0030404FA0EF444EA0C046C
:1017780004604C6814F4403FB8D0244C256E45F002
:1017880001052566246E04F001040194019C4FEACA
:10179800930C0CF102051B4C54F8255003F003047C
:1017A8004FEA840E0F2404FA0EF425EA0405B0F17A
:1017B800904F3FF462AF164CA04216D004F58064F7
:1017C800A04214D004F58064A04212D004F58064CD
:1017D800A04210D004F58064A0420ED004F58064C5
:1017E800A0423FF448AF072448E7012446E7022413
:1017F80044E7032442E7042440E705243EE702B017
:1018080070BD00BF0000014000040140001002400C
:10181800000400480AB18161704781627047000086
:10182800024B186800F4C060704700BF00700040A9
:10183800B0F5007F0FD01F4B1B6803F4C063B3F5EE
:10184800806F34D01B4A136823F4C06343F4806369
:10185800136000207047174B1B6803F4C063B3F58F
:10186800007F20D0134A136823F4C06343F4007345
:101878001360114B1B68322202FB03F30F4AA2FBD1
:1018880003239B0C013300E0013B0A4A526912F41E
:10189800806F01D0002BF7D1064B5B6913F4806F82
:1018A80003D10020704700207047032070470020B4
:1018B800704700BF007000400000002083DE1B431B
:1018C80030B583B00446204B9B6D13F0805F0BD07E
:1018D800FFF7A6FFB0F5007F17D0802C1FD82DD0BA
:1018E800702C2DD000211BE0174DAB6D43F08053B9
:1018F800AB65AB6D03F080530193019BFFF790FF3D
:10190800AB6D23F08053AB65E4E7802C03D9A02CA2
:1019180003D9022104E0002102E0012100E00321B3
:101928000A4A136823F007030B431360136803F094
:1019380007038B4206D1002003B030BD0221EFE738
:101948000121EDE70120F7E70010024000200240E6
:10195800284A9368D26802F0030213F00C030AD0F5
:101968000C2B06D0042B1FD0082B20D000200246B9
:1019780010E0012AF6D11F4A126812F0080F0CD1A4
:101988001C4AD2F89420C2F303221B4951F82220A2
:1019980043B100200C2B0DD07047164A1268C2F3D1
:1019A8000312F2E71046F5E714480022F2E714485C
:1019B8000022EFE70F4BDB6803F00303022B16D07E
:1019C800032B00D10E4A0B49C868C0F30210431C10
:1019D800C868C0F3062002FB00F0B0FBF3F0CB6848
:1019E800C3F3416301335B00B0FBF3F0D4E7034A70
:1019F800E9E700BF001002404C5700080024F4003B
:101A080000127A00002800F0F182F0B583B0044695
:101A1800964B9D6805F00C05DE6806F00306036822
:101A280013F0100F5AD0E5B10C2D18D0A369002B74
:101A380000F0BB808D4A136843F001031360FFF781
:101A48006BFD0746894B1B6813F0020F40F09A8024
:101A5800FFF762FDC01B0228F4D90320D1E2012E52
:101A6800E4D1824B1B6813F0020F03D0A369002B4B
:101A780000F0BE82206A7D4B1B6813F0080F5BD014
:101A88007A4B1B6803F0F00398425CD8774B1A68CE
:101A980042F008021A601A6822F0F002216A0A432A
:101AA8001A605A6822F47F42E16942EA01225A60C8
:101AB800002D60D0FFF74CFF6C4B9B68C3F30313FA
:101AC8006B4AD35C03F01F03D8406A4B18606A4B1B
:101AD8001868FFF7D7FC002840F09382236813F0BA
:101AE800010F00F08180082D75D00C2D71D063682E
:101AF800B3F5803F00F09780B3F5A02F00F09980F0
:101B08005A4B1A6822F480321A601A6822F480222A
:101B18001A606368002B00F09980FFF7FDFC074608
:101B2800524B1B6813F4003F5ED1FFF7F5FCC01B56
:101B38006428F5D9032064E24C4BD3F894301B0990
:101B480003F0F003A0E7FFF7BBFE002840F0528245
:101B5800464B1A6842F008021A601A6822F0F0022E
:101B6800216A0A431A605A6822F47F42E16942EA0C
:101B780001225A609EE7206AFFF7A2FE002899D04A
:101B880001203EE2394B1A6842F008021A601A68CE
:101B980022F0F002216A0A431A605A6822F47F424E
:101BA800E16942EA01225A6098E7304A136823F053
:101BB80001031360FFF7B0FC07462C4B1B6813F0BA
:101BC800020F8BD0FFF7A8FCC01B0228F5D9032011
:101BD80017E2032E8BD1254B1B6813F4003F03D06B
:101BE8006368002B00F00882236813F0020F58D0B6
:101BF800042D45D00C2D41D0E368002B77D01B4A2B
:101C0800136843F480731360FFF786FC0646174B8E
:101C18001B6813F4806F61D1FFF77EFC801B0228DC
:101C2800F5D90320EDE1114A136843F480331360BA
:101C38006FE703F18043A3F53C331A6842F480222E
:101C48001A601A6842F480321A6062E7FFF764FC8F
:101C58000746064B1B6813F4003FC5D0FFF75CFC32
:101C6800C01B6428F5D90320CBE100BF0010024057
:101C7800345700080000002008000020022EBBD1C5
:101C8800A34B1B6813F4806F03D0E368002B00F0AC
:101C9800B5819F4A536823F0F853216943EA0163E9
:101CA8005360236813F0080F4CD063699BB3984ABC
:101CB800D2F8943043F00103C2F89430FFF72CFCBB
:101CC8000646934BD3F8943013F0020F3AD1FFF73E
:101CD80023FC801B0228F4D9032092E18C4A536824
:101CE80023F0F853216943EA01635360D9E7884A2E
:101CF800136823F480731360FFF70EFC0646844BC9
:101D08001B6813F4806FCCD0FFF706FC801B0228F9
:101D1800F5D9032075E17E4AD2F8943023F0010307
:101D2800C2F89430FFF7F8FB0646794BD3F89430A5
:101D380013F0020F06D0FFF7EFFB801B0228F4D93F
:101D480003205EE1236813F0040F7AD0704B9B6D7B
:101D580013F0805F36D16E4B9A6D42F080529A65CF
:101D68009B6D03F080530193019B0126694B1B680F
:101D780013F4807F28D0A368012B39D0052B3FD0DE
:101D8800634BD3F8902022F00102C3F89020D3F8D7
:101D9800902022F00402C3F89020A368002B3DD0C5
:101DA800FFF7BAFB07465A4BD3F8903013F0020FEF
:101DB80046D1FFF7B1FBC01B41F288339842F2D9F4
:101DC80003201EE10026D1E7524A136843F48073CA
:101DD8001360FFF7A1FB07464E4B1B6813F4807F87
:101DE800C9D1FFF799FBC01B0228F5D9032008E1E8
:101DF800474AD2F8903043F00103C2F89030CCE75C
:101E0800434BD3F8902042F00402C3F89020D3F853
:101E1800902042F00102C3F89020BEE7FFF77CFB58
:101E280007463B4BD3F8903013F0020F08D0FFF76A
:101E380073FBC01B41F288339842F2D90320E0E0DB
:101E4800EEB9A36A002B00F0DB80022B1DD00C2D0D
:101E580000F0DD802E4A136823F080731360FFF7CB
:101E68005BFB04462A4B1B6813F0007F00F0B78029
:101E7800FFF752FB001B0228F4D90320C1E0244AD3
:101E8800936D23F080539365DBE7214BDB6803F008
:101E98000301E26A91420FD00C2D00F0B4801C4B74
:101EA8001B6813F0806F40F0B080194B1B6813F06B
:101EB800805F31D00120A4E003F07002216B01396A
:101EC800B2EB011FE8D103F4FE42616BB2EB012FC4
:101ED800E2D103F40031A26B073A18BF0122914204
:101EE800DAD103F4C001E26B5208013AB1EB425F68
:101EF800D2D103F0C063226C5208013AB3EB426FAF
:101F0800CAD1034B1B6813F0007F4ED0002078E045
:101F180000100240007000403E4A136823F08073AE
:101F28001360FFF7F9FA05463A4B1B6813F0007F78
:101F380006D0FFF7F1FA401B0228F5D9032060E02C
:101F4800344AD36834491940E36A206B013843EABC
:101F58000013606B43EA0023E06B4008013843EA52
:101F68004053206C4008013843EA4063A06B0009E5
:101F780043EA40430B43D360136843F08073136014
:101F8800D36843F08073D360FFF7C6FA0446214B49
:101F98001B6813F0007F06D1FFF7BEFA001B02286A
:101FA800F5D903202DE000202BE01A4B1A6842F0E7
:101FB80080721A60DA6842F08072DA60FFF7ACFA71
:101FC8000446144B1B6813F0007F06D1FFF7A4FAF0
:101FD800031B022BF5D9032013E0002011E00D4A62
:101FE800D1680E4B0B40D36000200AE001207047F7
:101FF800012006E0012004E0012002E0012000E0C9
:10200800002003B0F0BD0120FBE70120F9E7012023
:10201800F7E700BF001002408C809DF9FCFFEEFE40
:10202800002800F0AF8070B50D460446594B1B6878
:1020380003F007038B420BD2564A136823F00703B9
:102048000B431360136803F007038B4240F09C8036
:10205800236813F0020F0CD0A2684F4B9B6803F063
:10206800F0039A4205D94C498B6823F0F0031A43D0
:102078008A60236813F0010F39D06368032B09D0F5
:10208800022B26D063BB444A126812F0020F06D115
:10209800012076E0404A126812F0007F76D03E496F
:1020A8008A6822F0030213438B60FFF735FA06466D
:1020B800394B9B6803F00C036268B3EB820F16D0B0
:1020C800FFF72AFA801B41F288339842F0D903209F
:1020D80057E0314A126812F4003FE0D1012050E085
:1020E8002D4A126812F4806FD9D1012049E0236883
:1020F80013F0020F0CD0A268274B9B6803F0F00383
:102108009A4205D224498B6823F0F0031A438A6067
:10211800204B1B6803F00703AB420AD91D4A13681A
:1021280023F007032B431360136803F00703AB4244
:102138002ED1236813F0040F06D0174A936823F4AE
:10214800E063E1680B439360236813F0080F07D03E
:10215800114A936823F46053216943EAC1039360E9
:10216800FFF7F6FB0C4B9B68C3F303130B4AD35CD6
:1021780003F01F03D8400A4B18600A4B1868FFF792
:1021880081F970BD012070470120FAE70120F8E7C6
:102198000120F6E7002002400010024034570008F2
:1021A8000000002008000020014B1868704700BF9D
:1021B8000000002008B5FFF7F7FF054B9B68C3F345
:1021C8000223044AD35C03F01F03D84008BD00BFB4
:1021D800001002404457000808B5FFF7E5FF054B1B
:1021E8009B68C3F3C223044AD35C03F01F03D8409F
:1021F80008BD00BF0010024044570008F8B5044667
:102208000F46594BDB6813F0030F18D0564BDB68A9
:1022180003F003030268934202D001252846F8BD63
:10222800002A00F09E80504BDB68C3F30213013391
:102238004268934201D00125F0E7002509E00368D0
:10224800022B57D0032B5CD0012B42D00125002D47
:10225800E4D1454A136823F080631360FFF75CF903
:102268000646414B1B6813F0006F05D0FFF754F981
:10227800831B022BF5D90325002DCFD1002F4ED17A
:1022880039490B6923F41F3323F44073A068E268CB
:102298001209520442EA002213430B61324A1368BE
:1022A80043F080631360FFF737F906462E4B1B682F
:1022B80013F0006F05D1FFF72FF9831B022BF5D917
:1022C8000325002DAAD1284A1369A1690B4313617C
:1022D800A4E7254A126812F0020F1ED02248C268ED
:1022E80022F073026168013943EA01131343C360A2
:1022F8000025ACE71C4A126812F4806FEED1012564
:10230800A5E7194A126812F4003FE7D1164A126885
:1023180012F4802FE2D1012599E7012597E7012FD3
:102328000FD01148026922F0C06222F4FE42A1686F
:1023380063695B08013B5B0643EA012313430361BE
:10234800ACE70948026922F4C00222F4FE42A168FF
:1023580023695B08013B5B0543EA012313430361DF
:102368009CE701255AE700BF00100240F8B5044673
:102378000F46504BDB6813F0030F18D04D4BDB684A
:1023880003F003030268934202D001252846F8BDF2
:10239800002A00F08C80474BDB68C3F3021301333B
:1023A8004268934201D00125F0E7002509E003685F
:1023B800022B57D0032B5CD0012B42D00125002DD6
:1023C800E4D13C4A136823F080531360FFF7A4F864
:1023D8000646384B1B6813F0005F05D0FFF79CF8E2
:1023E800831B022BF5D90325002DCFD1002F4ED109
:1023F80030494B6923F41F3323F44073A068E26823
:102408001209520442EA002213434B61294A136815
:1024180043F080531360FFF77FF80646254B1B688F
:1024280013F0005F05D1FFF777F8831B022BF5D96E
:102438000325002DAAD11F4A536961690B435361D3
:10244800A4E71C4A126812F0020F1ED01948C2688D
:1024580022F073026168013943EA01131343C36030
:102468000025ACE7134A126812F4806FEED10125FB
:10247800A5E7104A126812F4003FE7D10D4A126826
:1024880012F4802FE2D1012599E7012597E7094841
:10249800426922F0C06222F4FE42A16823695B0807
:1024A800013B5B0643EA012313434361AEE7012581
:1024B8006CE700BF001002402DE9F04182B00446ED
:1024C800036813F4006F33D0436EB3F5000F1FD0C9
:1024D8000CD823B3B3F5800F05D100212030FFF7C6
:1024E80045FF064620E001273E4623E0B3F5400FAE
:1024F8000BD10026604AD2F8883023F44003616E7D
:102508000B43C2F88830002714E001273E4611E04B
:10251800594AD36843F48033D3600026EAE70021A0
:102528000430FFF76BFE0646002EE3D0374601E085
:1025380000273E46236813F4805F30D0A36EB3F1C2
:10254800007F1FD00DD81BB3B3F1807F06D10021C7
:1025580004F12000FFF70AFF064605E001273E4682
:102568001DE0B3F1407F0AD1C6B9434AD2F888309A
:1025780023F04073A16E0B43C2F888300FE00127A7
:102588003E460CE03C4AD36843F48033D360EBE723
:102598000021201DFFF732FE0646E5E7374623688F
:1025A80013F4003F71D0344B9B6D13F0805F4ED114
:1025B800314B9A6D42F080529A659B6D03F08053BF
:1025C8000193019B4FF001082C4A136843F4807370
:1025D8001360FEF7A1FF0546284B1B6813F4807FA4
:1025E80005D1FEF799FF401B0228F5D90326002ED6
:1025F80046D1214BD3F8903013F4407316D0D4F859
:1026080084209A4212D01C4AD2F8903023F44073A6
:10261800D2F8901041F48031C2F89010D2F890109E
:1026280021F48031C2F89010C2F8903013F0010FF5
:1026380010D1002E40F027810F4AD2F8903023F4B1
:102648004073D4F884100B43C2F8903019E04FF06F
:102658000008B9E7FEF760FF0546074BD3F890304E
:1026680013F0020FE5D1FEF757FF401B41F2883304
:102678009842F2D90326DCE70010024000700040BF
:102688003746B8F1000F40F00081236813F0010FBE
:1026980008D09D4AD2F8883023F00303A16B0B437E
:1026A800C2F88830236813F0020F08D0964AD2F88F
:1026B800883023F00C03E16B0B43C2F888302368A1
:1026C80013F0040F08D0904AD2F8883023F0300372
:1026D800216C0B43C2F88830236813F0080F08D028
:1026E800894AD2F8883023F0C003616C0B43C2F8E2
:1026F8008830236813F0100F08D0834AD2F8883046
:1027080023F44073A16C0B43C2F88830236813F09C
:10271800200F08D07C4AD2F8883023F44063E16C5B
:102728000B43C2F88830236813F4007F08D0764A38
:10273800D2F8883023F44023E16D0B43C2F8883087
:10274800236813F4806F08D06F4AD2F8883023F4D6
:102758004013216E0B43C2F88830236813F0400FF2
:1027680008D0694AD2F8883023F44053216D0B43CE
:10277800C2F88830236813F0800F08D0624AD2F874
:10278800883023F44043616D0B43C2F888302368D6
:1027980013F4807F08D05C4AD2F8883023F44033A1
:1027A800A16D0B43C2F88830236813F4005F0FD083
:1027B800554AD2F8883023F04063E16E0B43C2F8E3
:1027C8008830E36EB3F1006F65D0B3F1806F67D0E6
:1027D800236813F4002F0FD04B4AD2F8883023F027
:1027E8004063216F0B43C2F88830236FB3F1006F49
:1027F8005ED0B3F1806F60D0236813F4802F0FD0C0
:10280800414AD2F8883023F04063616F0B43C2F825
:102818008830636FB3F1006F57D0B3F1806F59D030
:10282800236813F4804F0FD0374AD2F8883023F04A
:102838004053A16F0B43C2F88830A36FB3F1805F98
:1028480050D0B3F1005F55D0236813F4004F08D07F
:102858002D4AD2F8883023F08043E16F0B43C2F849
:102868008830236813F4803F09D0274AD2F888308B
:1028780023F00043D4F880100B43C2F88830384660
:1028880002B0BDE8F0813746FBE61F4A936D23F09E
:1028980080539365F9E6D36843F48013D36097E7D0
:1028A8000121201DFFF7AAFC002891D007468FE7D9
:1028B800D36843F48013D3609EE70121201DFFF7FE
:1028C8009DFC002898D0074696E7D36843F4801308
:1028D800D360A5E70121201DFFF790FC00289FD0B9
:1028E80007469DE70221201DFFF788FC0028ABD092
:1028F8000746A9E7022104F12000FFF737FD002869
:10290800A2D00746A0E700BF001002402DE9F0471B
:1029180082B00546884617461E46FEF7FDFD0A9B0F
:102928001B1A03EB0609FEF7F7FD82462B4B1B68C3
:10293800C3F3CB3309FB03F301932B689C6838EA94
:1029480004030CBF4FF0010C4FF0000CBC4540D005
:10295800B6F1FF3FF1D0FEF7DFFDA0EB0A004845D6
:102968000AD2B9F1000F07D0019A02B14A46019B79
:10297800013B01939146E0E72A68536823F0E0039E
:1029880053606B68B3F5827F0BD0AB6AB3F5005F19
:1029980014D0012385F85D30002385F85C300320CE
:1029A80018E0AB68B3F5004F02D0B3F5806FECD1F7
:1029B8002A68136823F040031360E6E72A6813685F
:1029C80023F4005313602A68136843F40053136018
:1029D800DFE7002002B0BDE8F08700BF000000205C
:1029E8002DE9F04782B006460C4615461F460023DF
:1029F8008DF80330FEF790FD0A9B1B1A03EB0708BE
:102A0800FEF78AFD8146D6F800A0314B1B6803EB20
:102A18008303C3EBC3031B0D08FB03F3019302E01D
:102A2800B7F1FF3F12D133689B6803EA040CAC4549
:102A38004AD0B4F5C06FF3D1002DF1D19AF80C301B
:102A4800DBB28DF803309DF80330E9E7FEF764FD4B
:102A5800A0EB090040450AD2B8F1000F07D0019A4F
:102A680002B14246019B013B01939046DBE7326885
:102A7800536823F0E00353607368B3F5827F0BD08B
:102A8800B36AB3F5005F14D0012386F85D300023E4
:102A980086F85C30032018E0B368B3F5004F02D025
:102AA800B3F5806FECD13268136823F040031360EC
:102AB800E6E73268136823F400531360326813683A
:102AC80043F400531360DFE7002002B0BDE8F0874D
:102AD8000000002070B582B004460D4616460092EC
:102AE8000B4600224FF4C051FFF77AFFB0B90096A9
:102AF8002B46002280212046FFF708FFA8B9009640
:102B08002B4600224FF4C0612046FFF769FF50B101
:102B1800236E43F020032366032004E0236E43F072
:102B280020032366032002B070BD236E43F0200308
:102B380023660320F7E700286AD010B50446436AE5
:102B480033B94368B3F5827F05D00023C36102E03F
:102B58000023036143610023A36294F85D30002BD6
:102B68004DD0022384F85D302268136823F04003B7
:102B78001360E368B3F5E06F47D90022B3F5706FCF
:102B880004D0B3F5E06F01D00023A362636803F4B7
:102B98008273A16801F404410B43216901F0020129
:102BA8000B43616901F001010B43A16901F4007154
:102BB8000B43E16901F038010B43216A01F0800100
:102BC8000B43A16A01F4005120680B430360638B37
:102BD80003F00403616A01F010010B43616B01F01B
:102BE80008010B43E16801F470610B43216813434A
:102BF8004B6000202066012384F85D3010BD84F806
:102C08005C302046FDF7C2FDABE74FF48052B5E7D4
:102C1800012070472DE9F04383B01D4690F85C30E1
:102C2800012B00F0F480044688469146012380F881
:102C38005C30FEF771FC074694F85D60F6B2012E31
:102C480040F0DD80B8F1000F00F0DA80B9F1000F34
:102C580000F0D680032384F85D3000232366C4F88F
:102C68003880A4F83C90A4F83E902364A4F844303B
:102C7800A4F846302365E364A368B3F5004F1ED07B
:102C880023681A6812F0400F03D11A6842F0400214
:102C98001A60E368B3F5E06F44D9636813B1B9F11A
:102CA800010F20D1A26B23681288DA60A36B02336C
:102CB800A363E38F9BB2013B9BB2E38713E02268D7
:102CC800136823F0400313602268136843F48043B9
:102CD8001360D5E7FEF720FCC01BA84202D3B5F16C
:102CE800FF3F1AD1CDB1E38F9BB2002B6FD0236881
:102CF8009A6812F0020FEDD0A26B1288DA60A36B0B
:102D08000233A363B4F83EC01FFA8CFC0CF1FF3CFD
:102D18001FFA8CFCA4F83EC0E5E7012384F85D3077
:102D280003266DE0636813B1B9F1010F32D1E38F67
:102D38009BB2012B0CD9A26B23681288DA60A36BB3
:102D48000233A363E38F9BB2023B9BB2E38721E08C
:102D5800A26B236812781A73A36B0133A363E38F02
:102D68009BB2013B9BB2E38714E0A36B1B78137300
:102D7800A36B0133A363E38F9BB2013B9BB2E38751
:102D880008E0FEF7C9FBC01BA84202D3B5F1FF3F1C
:102D980018D1BDB1E38F9BB2CBB12268936813F011
:102DA800020FEED0E38F9BB2012BDED9A36B1B88F9
:102DB800D360A36B0233A363E38F9BB2023B9BB246
:102DC800E387E7E7012384F85D30032618E03A46F5
:102DD80029462046FFF77EFE08B120232366A36814
:102DE80033B901932368DA6801929B680193019BC8
:102DF800236E2BB9012384F85D30002600E00226FB
:102E0800002384F85C30304603B0BDE8F083022626
:102E1800F9E72DE9F8431F46089D90F85C30012B2F
:102E280000F06B81044688469146012380F85C30A7
:102E3800FEF772FB064694F85D30DBB26268012B40
:102E48000AD0B2F5827F40F04681A268002A40F09D
:102E58004881042B40F04781B8F1000F00F045810C
:102E6800B9F1000F00F04381002F00F0428194F87F
:102E78005D30DBB2042B02D0052384F85D300023DB
:102E88002366C4F84090A4F84670A4F84470C4F8C7
:102E98003880E787A787E3642365E368B3F5E06FC5
:102EA80001D8012F23D92268536823F48053536033
:102EB80023681A6812F0400F03D11A6842F04002E2
:102EC8001A60E368B3F5E06F5CD963680BB1012F52
:102ED8000BD1A26B23681288DA60A36B0233A36359
:102EE800E38F9BB2013B9BB2E387012730E0226866
:102EF800536843F480535360DAE7A26B1288DA60B0
:102F0800A36B0233A363E38F9BB2013B9BB2E387BE
:102F1800002723689A6812F0010F11D0B4F84620F0
:102F280092B26AB1DA68236C1A80236C0233236484
:102F3800B4F846309BB2013B9BB2A4F84630012757
:102F4800FEF7EAFA831BAB4202D3B5F1FF3F14D177
:102F5800E38F9BB22BB9B4F846309BB2002B00F03C
:102F6800AB8023689A6812F0020FD2D0E28F92B237
:102F7800002ACED0002FCCD0BFE7012384F85D30E3
:102F88000320A9E063680BB1012F0FD1E38F9BB237
:102F9800012B0DD9A26B23681288DA60A36B023368
:102FA800A363E38F9BB2023B9BB2E387012749E00F
:102FB800A26B236812781A73A36B0133A363E38FA0
:102FC8009BB2013B9BB2E387F0E7E28F92B2012A02
:102FD8000CD9A26B1288DA60A36B0233A363E38F68
:102FE8009BB2023B9BB2E38700273DE0A26B1278BD
:102FF8001A73A36B0133A363E38F9BB2013B9BB2AC
:10300800E387002730E02268536843F48053536015
:1030180001270DE0226C1B7B1370236C01332364A2
:10302800B4F846309BB2013B9BB2A4F84630012766
:10303800FEF772FA801BA84202D3B5F1FF3F36D1E2
:10304800002D34D0E38F9BB223B9B4F846309BB23D
:10305800002B31D023689A6812F0020F04D0E28F57
:1030680092B20AB1002FB0D123689A6812F0010F0A
:10307800DED0B4F8462092B2002AD9D0B4F846205F
:1030880092B2012AC6D9DA68236C1A80236C0233FB
:103098002364B4F846309BB2023B9BB2A4F8463096
:1030A800B4F846309BB2012BADD90127C0E7012304
:1030B80084F85D3003200FE0324629462046FFF7AA
:1030C80009FD10B1202323660120236E9BB901233B
:1030D80084F85D3000E00220002384F85C30BDE80D
:1030E800F8830220F8E70220F6E70120F4E7012040
:1030F800F2E70120F0E70120EEE70220EFE702689F
:1031080052E8003F23F4907342E800310029F6D1D9
:10311800026802F1080353E8003F23F00103083274
:1031280042E800310029F3D1036E012B06D0202399
:10313800C0F880300023036683667047026852E84F
:10314800003F23F0100342E800310029F6D1EEE7F2
:1031580010B5044601688368026913434269134342
:10316800C269134308688E4A024013430B60226801
:10317800536823F44053E1680B435360A169226804
:10318800884B9A4201D0236A1943936823F4306329
:103198000B4393602368844A934210D0834A934236
:1031A80021D0834A934237D0824A93425CD0824AE4
:1031B80093426BD07B4A93427DD010223AE002F5CD
:1031C8005842D2F8882002F00302032A09D8DFE81F
:1031D80002F00204870601222CE004222AE00822D9
:1031E80028E0102226E002F5E632D2F8882002F024
:1031F8000C020C2A0ED8DFE802F0070D0D0D090DA0
:103208000D0D750D0D0D0B00002213E0042211E0C9
:1032180008220FE010220DE002F5E432D2F88820EF
:1032280002F03002202A5FD01AD8002A5ED0102A75
:103238005ED104225B498B4276D0E069B0F5004F3D
:1032480000F0A380082A00F20E81DFE812F0DD000A
:10325800F300DB000C01F6000C010C010C01F90075
:10326800302A47D10822E5E702F5E232D2F8882071
:1032780002F0C002802A3FD004D8FAB3402A3FD1D6
:103288000422D7E7C02A3DD10822D3E702F5E0326D
:10329800D2F8882002F44072B2F5007F34D005D805
:1032A800A2B3B2F5807F33D10422C3E7B2F5407FE1
:1032B80030D10822BEE702F5C832D2F8882002F4DD
:1032C8004062B2F5006F27D005D83AB3B2F5806FE7
:1032D80026D10422AEE7B2F5406F23D10822A9E730
:1032E8000222A7E70222A5E70222A3E70022A1E71C
:1032F80010229FE710229DE702229BE7002299E710
:10330800102297E7102295E7022293E7002291E71F
:1033180010228FE710228DE702228BE7002289E72F
:10332800102287E7102285E7082A00F28C80DFE860
:1033380002F0088A2A8A278A8A8A05004FF4004000
:1033480003E0FEF737FF00287FD0626802EB4203F4
:1033580083427CD8B0EB023F7BD8010E00025308B1
:10336800C0184FF0000341F10001FCF729FFA0F558
:103378004072124B9A426ED82368D860002055E0FC
:10338800FEF7E6FADFE70E48DFE7082A65D8DFE848
:1033980002F019330564366464641D00084815E0BA
:1033A800F369FFEF0080004000380140004400400E
:1033B80000480040004C004000500040FFFC0F0057
:1033C8000024F400FEF7F6FE002848D0626853088F
:1033D80003EB4000B0FBF2F0A0F110024FF6EF73E0
:1033E8009A423ED883B223F00F03C0F34200184339
:1033F8002368D860002019E0FEF7EEFEE4E7FEF748
:10340800A7FAE1E71B4802E0FEF7D4FE68B3636859
:1034180000EB5300B0FBF3F0A0F110024FF6EF738E
:103428009A4224D8236880B2D86000200023A3667B
:10343800E36610BDFEF7D0FEE8E7FEF789FAE5E798
:103448004FF40040E3E70120F0E70020EEE7012019
:10345800ECE70120EAE70120E8E70120E6E70020A1
:10346800E4E70120E2E70120E0E70020DEE70120B1
:10347800DCE700BF0024F400436A13F0080F06D00D
:103488000268536823F40043416B0B435360436A5B
:1034980013F0010F06D00268536823F40033816AE1
:1034A8000B435360436A13F0020F06D00268536857
:1034B80023F48033C16A0B435360436A13F0040F4B
:1034C80006D00268536823F48023016B0B435360D2
:1034D800436A13F0100F06D00268936823F48053F0
:1034E800816B0B439360436A13F0200F06D0026888
:1034F800936823F40053C16B0B439360436A13F042
:10350800400F0AD00268536823F48013016C0B4300
:103518005360036CB3F5801F0BD0436A13F0800F20
:1035280006D00268536823F40023816C0B43536070
:1035380070470268536823F4C003416C0B4353601F
:10354800EBE72DE9F84305460F4616469946DDF8A0
:1035580020802C68E46937EA04030CBF4FF0010CA3
:103568004FF0000CB44532D1B8F1FF3FF1D0FDF770
:10357800D3FFA0EB090040452CD8B8F1000F2BD0A1
:103588002B681A6812F0040FE3D0DA6912F0080FFA
:1035980011D1DA6912F4006FDBD04FF400621A62BD
:1035A8002846FFF7ACFD2023C5F88430002385F8B2
:1035B800783003200CE008241C622846FFF79FFDA2
:1035C800C5F88440002385F87830012000E0002009
:1035D800BDE8F8830320FBE70320F9E730B583B0A3
:1035E80004460023C0F88430FDF796FF054622689C
:1035F800126812F0080F0FD123681B6813F0040F2C
:1036080026D12023E367C4F8803000202066606656
:1036180084F8780003B030BD6FF07E430093034612
:1036280000224FF400112046FFF78BFF0028E3D05B
:10363800226852E8003F23F0800342E80031002965
:10364800F6D12023E367002384F878300320E1E7EC
:103658006FF07E4300932B4600224FF480012046F2
:10366800FFF76FFF0028CCD0226852E8003F23F410
:10367800907342E800310029F6D1226802F108036C
:1036880053E8003F23F00103083242E800310029E3
:10369800F3D12023C4F88030002384F87830032045
:1036A800B8E768B310B50446C36F03B32423E367D0
:1036B8002268136823F001031360636AE3B92046A4
:1036C800FFF746FD012811D02268536823F4904380
:1036D80053602268936823F02A0393602268136872
:1036E80043F0010313602046FFF778FF10BD80F810
:1036F8007830FDF733F9D9E72046FFF7BDFEDEE75E
:103708000120704708B50349034801F0C7FA034B85
:10371800187008BDDC09002010000020E009002016
:1037280000207047044B01221A701A7802F0FE023A
:103738001A701878704700BF0C00002008B5074BB6
:1037480001221A70FDF772FC20B9044A137803F0BD
:10375800FE031370014B187808BD00BF0C00002051
:1037680008B5084611461A46FDF7D6FD002008BDE3
:1037780008B5084611461A46FDF7F8FD002008BDB1
:1037880010B51446032913D8DFE801F0020D040927
:10379800084610BD4FF4007313600120F9E70823B1
:1037A80013600020F5E7FDF792FD20600020F0E7A8
:1037B8000120EEE708B5044B03EB8002526852681B
:1037C8000344187A904708BD0C0A002008B5084B36
:1037D8001B5C53B9064B01221A5403EB8002526852
:1037E80012681844007A904708BD0020FCE700BF23
:1037F8000C0A002038B5044C04EB80056D68AD68F0
:103808000444207AA84738BD0C0A002038B5044C77
:1038180004EB80056D68ED680444207AA84738BD3C
:103828000C0A002010B5044B03EB8004646824697B
:103838000344187AA04710BD0C0A0020427800788B
:1038480040EA02207047C278837843EA022243782C
:1038580043EA0223007840EA032070470170090A0E
:10386800417070470170C1F307234370C1F30743E8
:103878008370090EC1707047944632B10A780131DD
:1038880002700130BCF1010CF8D1704701700130B1
:10389800013AFBD1704784469CF800000CF1010CFA
:1038A8000B780131C01A013A01D00028F4D07047D2
:1038B800034600E00133187808B18842FAD170470E
:1038C80030B400252B4601E001250133012B15D822
:1038D8001A01174CA258002AF6D00468A242F4D163
:1038E800134A02EB0312546882689442EDD1104ADD
:1038F80002EB0312946842699442E6D1022B0AD083
:10390800A1B90B4A02EB03139B89B3F5807F0BD057
:10391800002030BC70472DB9022901D01220F8E7E9
:103928000020F6E70020F4E71020F2E71020F0E787
:10393800E8090020002000E00130012804D8030134
:10394800034AD358002BF7D1023818BF012070471B
:10395800E809002030B4002300E00133012B13D81C
:103968001A01254CA45802689442F6D1224A02EB67
:103978000312546882689442EFD11F4A02EB031283
:10398800946842699442E8D1022B0DD021B11A4AB9
:1039980002EB0312928962BB01BB174A02EB0312C6
:1039A8009189013189B21BE00023012B05D81A0146
:1039B800114CA2580AB10133F7E7022B17D00E4D6C
:1039C8001C0105EB0312D0F800C045F804C0846858
:1039D80054604069906000209081D7E74FF480716F
:1039E800054A02EB03129181581C30BC7047002035
:1039F800FBE70020F9E700BFE809002001380128AB
:103A080015D80D4B03EB00139B89B3F5807F03D0CA
:103A18001BB1013B9BB200E00023074A02EB0012F6
:103A2800938133B903010020034AD0507047022024
:103A380070470020704700BFE8090020002302E01B
:103A480010BC70470133012B11D81A0108498A5854
:103A58008242F7D110B41A0100248C500133012B93
:103A6800EED81A0102498A588242F7D1F3E7704723
:103A7800E809002002394369023B8B4204D9438993
:103A8800806A01FB03007047002070470268C36A20
:103A98000433490A5289B1FBF2F101E0091A0833EB
:103AA800186818B18142F9D258680844704770B54F
:103AB80006460D4601F11A00FFF7C0FE3378032BC6
:103AC80000D070BD044605F11400FFF7B7FE44EAC4
:103AD8000040F6E770B506460C46154691B204F16B
:103AE8001A00FFF7BBFE3378032B00D070BD290CFA
:103AF80004F11400FFF7B2FEF8E700002DE9F84FD3
:103B080081468A460F6800F1240B0B222021584673
:103B1800FFF7BCFE002633464FF008082CE00135BD
:103B28007B5D2F2BFBD05C2BF9D03D44CAF80050AD
:103B3800002E43D099F82430E52B35D0202C37D8E7
:103B4800042389F82F30002028E008264FF00B08BE
:103B580011E014F0800F23D121461948FFF7A8FE81
:103B680050BBA4F16103DBB2192B01D8203CE4B2AD
:103B78000BF8064001362B465D1CFC5C202CD4D982
:103B88002F2CCDD05C2CCBD02E2C01D0B045E0D83A
:103B9800B8F10B0F0ED02E2CD7D00620BDE8F88F29
:103BA800803C084B1C5DD7E7052389F82430C5E71E
:103BB8000023C6E70620F1E70620EFE70620EDE739
:103BC800708B0008808B00080146006838B10246F7
:103BD8001378202B06D93A2B04D00132F8E74FF09E
:103BE800FF3070473A2B01D00020704710B40346CD
:103BF80013F8010B3038092808D89A4202D04FF040
:103C0800FF3005E030B901320A6001E04FF0FF30C3
:103C180010BC70474FF0FF30FAE738B50D46044640
:103C280098B103689BB11A78A2B18188DA88914269
:103C380003D0092000242C6038BD5878FFF7BAFD5E
:103C480010F0010009D12468F5E70920F3E71C46C4
:103C58000920F0E709200024EDE709200024EAE71D
:103C68002DE9F041C57815B92846BDE8F08104462C
:103C7800C76A00F1300801233A4641464078FFF709
:103C8800C5FD0546A0B90023E370236AFB1AA269A3
:103C98009342E9D2A67808E0A3691F4401233A4673
:103CA80041466078FFF7B2FD013E012EF4D8DBE70C
:103CB8000125D9E770B5C36A8B4202D10026304688
:103CC80070BD04460D46FFF7CBFF06460028F6D127
:103CD80001232A4604F130016078FFF78BFD10B10B
:103CE80001264FF0FF35E562E9E7000038B50446E4
:103CF8000023C3704FF0FF33C362FFF7DBFF30BB15
:103D0800054604F22E20FFF799FD4AF655239842FE
:103D18001FD194F83030E92B07D0236B03F0FF1341
:103D28000D4A934201D0022514E004F16600FFF722
:103D38008AFD20F07F40094B98420BD004F18200A5
:103D4800FFF781FD064B984204D0022502E00425C6
:103D580000E00325284638BDEB009000464154009A
:103D6800464154332DE9F04F85B00D4616460023E1
:103D78000B60FFF729FF071EC0F24481B54B53F8CB
:103D88002740002C00F043812C6006F0FE062378C3
:103D980073B16078FFF70EFD10F0010508D1002E11
:103DA80000F0318110F0040F00F02D810A252AE17E
:103DB80000232370F8B26070FFF708FD10F00105CA
:103DC80040F027811EB110F0040F40F0248100213B
:103DD8002046FFF78BFF022800F0B6800027042852
:103DE80000F01B81012800F21A8104F13B00FFF763
:103DF80025FDB0F5007F40F0148104F14600FFF77F
:103E08001DFD064620B904F15400FFF71CFD0646C7
:103E1800A66194F84020A270531EDBB2012B00F279
:103E2800028106FB02F894F83D90A4F80A90B9F1D3
:103E3800000F00F0FA8009F1FF3319EA030F40F090
:103E4800F68004F14100FFF7F9FC8246208110F06A
:103E58000F0F40F0EE8004F14300FFF7EFFC8346BC
:103E680020B904F15000FFF7EEFC834604F13E0050
:103E7800FFF7E4FC0246002800F0DD8000EB0803B1
:103E880003EB1A139B45C0F0D880ABEB030BBBFBCD
:103E9800F9F1CB45C0F0D3804FF6F57081426BD96C
:103EA8004FF0030B40F6F570814201D84FF0010B3B
:103EB80001F10209C4F81490E7613A4422623B44D4
:103EC800A362BBF1030F5AD0BAF1000F00F0BD8016
:103ED80042446262BBF1020F62D009EB490309F068
:103EE800010909EB530909F2FF19B6EB592FC0F084
:103EF800AE804FF0FF332361E36080232371BBF171
:103F0800030F50D084F800B0534A138801339BB292
:103F18001380E3802046FFF791FD74E0002004AB96
:103F280003EB860343F8100C0136032E0ED804F178
:103F38003000330103F5DF7318440379002BEDD00B
:103F48000830FFF780FCEAE70026EEE700260AE0E3
:103F580039462046FFF7CAFE01287FF640AF0136F2
:103F6800032E3FF63CAF04AB03EB860353F8107CFB
:103F7800002FEDD10320F2E74FF0020B92E704F196
:103F88005A00FFF75BFC00285BD1BAF1000F5AD149
:103F980004F15C00FFF757FC60624FEA8909A2E769
:103FA8004FEA49099FE704F16000FFF747FC012841
:103FB800A8D1791C2046FFF77DFE0028A2D1002356
:103FC800237104F22E20FFF739FC4AF65523984254
:103FD80098D104F13000FFF736FC204B984291D17C
:103FE80004F50570FFF72FFC1D4B98428AD104F5A4
:103FF8000670FFF728FC206104F50770FFF723FC23
:10400800E0607FE70B25284605B0BDE8F08F0C255A
:10401800F9E70325F7E70A25F5E70125F3E70D2575
:10402800F1E70D25EFE70D25EDE70D25EBE70D256C
:10403800E9E70D25E7E70D25E5E70D25E3E70D257C
:10404800E1E70D25DFE70D25DDE70D25DBE70D258C
:10405800D9E700BFE4090020080A00205252614154
:10406800727241612DE9F04701297ED907460C4655
:10407800164643698B427AD90378022B45D0032B25
:1040880057D0012B03D002252846BDE8F08701EB65
:104098005108016A01EB5821FFF70CFE054600287C
:1040A800F2D107F1300A08F10109C8F3080814F041
:1040B80001041FD01AF9083003F00F03320102F48B
:1040C8007F621343DBB20AF808300123FB70396AB8
:1040D80001EB59213846FFF7EDFD05460028D3D1FD
:1040E800C9F3080944B1C6F307120AF809200123E5
:1040F800FB70C9E7F3B2E6E71AF9092022F00F02CC
:10410800C6F303263243D2B2EFE7016A01EB14216A
:10411800FFF7D0FD05460028B6D107F1300064004E
:1041280004F4FF74B1B22044FFF798FB0123FB703D
:10413800AAE7016A01EBD411FFF7BCFD0546002888
:10414800A2D126F0704607F13003A40004F4FE74EF
:104158001C442046FFF777FB00F0704131432046AE
:10416800FFF780FB0123FB708EE702258CE7022511
:104178008AE7F8B50568012956D90C466B698B4260
:1041880054D92B78022B2DD0032B3BD0012B01D0F7
:1041980001204AE001EB5106296A01EB5621284625
:1041A800FFF788FD10B14FF0FF303EE0771CC6F3F3
:1041B80008062E4496F83060296A01EB57212846F4
:1041C800FFF778FDA0BBC7F308073D4495F830001A
:1041D80046EA002014F0010F01D0000925E0C0F3E1
:1041E8000B0022E0296A01EB14212846FFF762FD43
:1041F80008BB05F13000640004F4FF742044FFF7A5
:104208001DFB12E0296A01EBD4112846FFF752FD85
:10421800A0B905F13000A40004F4FE742044FFF7AF
:1042280012FB20F0704000E00120F8BD0120FCE7FF
:104238004FF0FF30F9E74FF0FF30F6E74FF0FF306F
:10424800F3E72DE9F041D0F80080B1F5001F40D226
:1042580006460F4611F01F0F3DD1416184682CB905
:1042680098F80030022B01D9D8F82440B4B9B8F82E
:104278000830B3EB571F30D9D8F82430F361B46154
:10428800F36993B303EB5723F36108F13003C7F3E2
:104298000801194431620020BDE8F081B8F80A50DD
:1042A8006D02AF420FD321463046FFF762FF044646
:1042B800B0F1FF3F13D0012813D9D8F81430834246
:1042C80011D97F1BEDE721464046FFF7D3FBF0618C
:1042D800D5E70220E0E70220DEE70220DCE7012044
:1042E800DAE70220D8E70220D6E70220D4E72DE952
:1042F800F041054606680F4651B9D6F80C80B8F16A
:10430800000F12D07369434511D84FF001080EE031
:10431800FFF72FFF0346012847D9B0F1FF3F49D0E7
:104328007269824246D8B84601E04FF00108444617
:104338000CE021462846FFF71CFF034678B1012808
:1043480038D0B0F1FF3F35D0444532D001347369DD
:10435800A342EED8B8F1010F29D90224E9E74FF0BA
:10436800FF3221463046FFF77DFE034600B977B994
:10437800A3B9F46032697369023B9A4201D8013AE1
:104388003261337943F001033371234612E0224648
:1043980039463046FFF766FE0346E9E7012B01D0B0
:1043A800012307E04FF0FF3304E0012302E000237C
:1043B80000E000231846BDE8F081F8B50C46056812
:1043C80001292ED9064611466B69A3422BD94AB159
:1043D8004FF0FF322846FFF745FE074610B123E0AD
:1043E800A24221D9274621463046FFF7C2FE04469D
:1043F800E0B101281CD0B0F1FF3F1BD000223946A4
:104408002846FFF72FFE074670B92B696A69911E87
:104418008B42E5D201332B612B7943F001032B71D9
:10442800DEE7022700E002273846F8BD0027FBE751
:104438000227F9E70127F7E72DE9F04706684569FC
:10444800C369002B6CD0044688462035B5F5001F9B
:1044580068D2C5F308073FB90133C361816979B9E7
:104468003389B3EB551F07D9656106F130033B4427
:1044780023620020BDE8F0870023C3610420F9E728
:104488007389013B13EA5529EED1FFF772FE824684
:10449800012849D9B0F1FF3F48D07369834237D822
:1044A800B8F1000F11D0A1692046FFF720FF82461E
:1044B80000283DD001283DD0B0F1FF3F3CD0304628
:1044C800FFF7CEFB28B10120D4E70023E3610420E5
:1044D800D0E74FF40072002106F13000FFF7D6F95B
:1044E80051463046FFF7C6FAF062738999450BD2F8
:1044F8000123F3703046FFF7B3FBF8B909F101095E
:10450800F36A0133F362F0E7F36AA3EB0903F3629A
:10451800C4F818A051463046FFF7ACFAE061A3E7AB
:104528000420A7E70420A5E70220A3E70120A1E7CC
:1045380007209FE702209DE701209BE7012099E7DC
:1045480070B5044606680021FFF77BFE054640B1BA
:10455800284670BD00212046FFF76EFF054600285B
:10456800F6D1E1693046FFF7A5FB05460028EFD1F3
:10457800206A03787BB1C37A03F03F03A371C37A3F
:1045880013F0080FE6D10B2204F12401FFF783F999
:104598000028DFD1DCE70425DAE730B583B004462C
:1045A8000191056801E001330193019B1A782F2AD4
:1045B800F9D05C2AF7D00022A2601B781F2B1ED9E5
:1045C80001A92046FFF79AFA034600BB2046FFF7E9
:1045D800B7FF94F82F200346E0B912F0040F16D164
:1045E800A37913F0100F1CD005F130036169C1F3F2
:1045F800080119442846FFF75AFAA060E0E780232B
:1046080084F82F3011462046FFF71BFE0346184654
:1046180003B030BD0428FAD112F0040FF7D10523F6
:10462800F5E70523F3E7F8B504460E4607680021C9
:10463800FFF707FE0246C0B9002508E00135B5427C
:1046480013D001212046FFF7F7FE024668B9E16959
:104658003846FFF72FFB024638B9236A1B78E52B4B
:10466800ECD0002BEAD00025EBE7042A01D0104655
:10467800F8BD0722FBE770B5044606680121FFF77D
:10468800D2FF054608B1284670BDE1693046FFF7FC
:1046980011FB05460028F6D120220021206AFFF7E9
:1046A800F5F80B2204F12401206AFFF7E5F801234D
:1046B800F370E8E770B50446FFF7D2FA054648B943
:1046C8002378032B08D0002211466078FFF7AAF858
:1046D80000B10125284670BD2379012BF3D104F1DF
:1046E80030064FF4007200213046FFF7CFF84AF643
:1046F800552104F22E20FFF7B1F80F493046FFF795
:10470800B1F80E4904F50570FFF7ACF8216904F516
:104718000670FFF7A7F8E16804F50770FFF7A2F83D
:10472800E2690132E262012331466078FFF76EF8F0
:1047380000232371C7E700BF525261417272416181
:1047480070B584B0019000911646039103A8FFF755
:104758003BFA041E1CDB104B53F8245025B12846A5
:10476800FFF76CF900232B70019B0BB100221A7024
:10477800019B094A42F8243063B1012E02D000207F
:1047880004B070BD002201A96846FFF7EBFAF7E70D
:104798000B20F5E70020F3E7E40900202DE9F043BA
:1047A80091B00191002800F00A811546064602F0F2
:1047B8003F073A4603A901A8FFF7D4FA044630B1E7
:1047C8000CB100233360204611B0BDE8F083039B91
:1047D8000493019904A8FFF7E0FE044660B99DF927
:1047E8003F30002B50DB37F0010314BF01210021BB
:1047F80004A8FFF765F8044615F01C0F5AD0002CE2
:104808004ED0042C42D047F00807002C61D117F095
:10481800080F5ED0FEF784FF054601460C980E305F
:10482800FFF720F829460C981630FFF71BF80C9B69
:104838002022DA72DDF80C80DDF8309049464046D7
:10484800FFF735F90546002249464046FFF742F989
:1048580000210C981C30FFF705F8039B0122DA7041
:10486800BDB3039BD3F82C800022294604A8FFF788
:10487800A4FD044668BB41460398FFF71BFA0446AB
:10488800013D039BDD6024E00624B5E7FFF752F8FD
:1048980008B91224B7E704A8FFF7EDFE0446B2E70B
:1048A8009DF8163013F0110F12D115F0040FACD08B
:1048B80008240EE06CB99DF8163013F0100F4CD197
:1048C80015F0020F05D013F0010F02D0072416E0EF
:1048D8000724A4B917F0080F01D047F04007039B3D
:1048E800DB6A73620C9BB36237F0010314BF0121CA
:1048F800002104A8FFF72EF8306100285DD0002CB5
:104908007FF45EAF039DDDF8308041462846FFF70F
:10491800CEF8B06008F11C00FEF795FFF0600021AA
:10492800F1623560EB88B380377571753162B161BA
:1049380006F130084FF400724046FEF7A7FF17F063
:10494800200F3FF43DAFF568002D3FF439AFB56156
:10495800039B5F897F02B16805E00424CFE7B1F1CA
:10496800FF3F0BD0ED1B5CB9BD4209D93046FFF7BC
:1049780000FC01460128F2D80224F0E70124F1E7FF
:10498800F161002C7FF41CAFC5F30803002B3FF442
:1049980017AF039F3846FFF76DF808B9022410E7F0
:1049A80000EB55223262012341467878FEF722FF58
:1049B80000283FF405AF012403E7022400E7092497
:1049C80001E72DE9F04F85B004460E461746984694
:1049D8000023C8F8003003A9FFF71FF90190002849
:1049E80040F0AE80637D0193002B40F0A980237DC9
:1049F80013F0010F00F0C380E568A369ED1ABD420A
:104A080062D33D4660E0E36A1BB12046FFF73EF8FB
:104A18006AE0E1692046FFF7ACFB65E04FF0020A67
:104A280084F815A0CDF804A08AE04FF0010A84F8B4
:104A380015A0CDF804A083E04FF0020A84F815A071
:104A4800CDF804A07CE094F91430002B02DB4FEA87
:104A58004A272FE0206AA0EB09005045F7D24FF40F
:104A6800007204F1300106EB4020FEF705FFEEE787
:104A7800226A4A450DD094F91430002B64DB0123D7
:104A88004A4604F1300103984078FEF7B3FE002847
:104A98006ED1C4F82090A369C3F30803C3F5007767
:104AA800BD4200D22F4604F130013A46194430463F
:104AB800FEF7E2FE3E44A3693B44A361D8F8003008
:104AC8003B44C8F80030ED1B002D39D0A169C1F373
:104AD8000803002BDFD1039B5F89013F17EA5127A9
:104AE80008D100298FD1A068012897D9B0F1FF3FDC
:104AF8009BD0E061DDF80CB0E1695846FEF7BAFFDB
:104B08008146002898D0B9444FEA552AB5F5007F68
:104B1800AED307EB0A03BBF80A20934201D9A2EBF4
:104B2800070A53464A4631469BF80100FEF762FEE3
:104B3800002888D04FF0010A84F815A0CDF804A009
:104B4800019805B0BDE8F08F012304F130019BF80E
:104B58000100FEF75BFE20B9237D03F07F03237578
:104B68008DE74FF0010A84F815A0CDF804A0E7E717
:104B78004FF0010A84F815A0CDF804A0E0E7072358
:104B88000193DDE770B582B0044601A9FFF745F847
:104B980070B9237D13F0400F0AD013F0800F09D1AC
:104BA800FEF7BEFD0546616A0198FFF783F878B104
:104BB80002B070BD0123226A04F1300101984078E7
:104BC800FEF724FE40BB237D03F07F032375E7E750
:104BD800A66AF37A43F02003F372A268314620688C
:104BE800FEF778FFE16806F11C00FEF73BFE294658
:104BF80006F11600FEF736FE002106F11200FEF758
:104C08002DFE019B0122DA700198FFF753FD237DE9
:104C180023F040032375CBE70120C9E710B582B024
:104C28000446FFF7AFFF08B102B010BD01A9204646
:104C3800FEF7F3FF0028F7D12069FEF7DFFE002812
:104C4800F2D12060F0E70000134B5B7A13BB10B57C
:104C5800044603F0FF00104B93F809C05FFA8CFC80
:104C68004FF0000E03F80CE093F809C003EB8C0C2E
:104C7800CCF804405C7A1C4422725A7A541CE4B280
:104C88005C7230320A703A234B702F238B7081F894
:104C980003E010BD012070470C0A002008B500226F
:104CA800FFF7D2FF08BD0000014B1868704700BF2E
:104CB8002400002070B50D4E0D4D761BB61006D0A1
:104CC800002455F8043B01349847A642F9D1094E0F
:104CD800094D761B00F000FDB61006D0002455F8EB
:104CE800043B01349847A642F9D170BD0C8C0008EA
:104CF8000C8C0008148C00080C8C0008024B014630
:104D0800186800F003B800BF240000202DE9F04F18
:104D180001F10B06162E83B0044624D8102900F2A0
:104D2800BA8000F0F5FA102618220220B54F3A444E
:104D3800A2F1080153688B4200F0BA805A68D9681A
:104D480022F003021A449D68E9608D60516841F0C1
:104D580001012046516003F1080500F0DFFA2846FA
:104D680003B0BDE8F08F36F0070600F19480B14239
:104D780000F2918000F0CCFAB6F5FC7FC0F09A8181
:104D8800730A00F08F80042B00F26F81B30903F1DE
:104D9800390003F1380CC3009A4F3B44A3F10805CE
:104DA8005B689D4206D10CE0002980F22781DB6810
:104DB8009D4206D05A6822F00302911B0F29F3DDA9
:104DC80060463D69DFF840C265457CD06A6822F0DC
:104DD8000302931B0F2B00F37B81002BC7E904CC44
:104DE80080F26C81B2F5007F80F01A81D30879686F
:104DF80001334FEA521E012202FA0EF20A4357F813
:104E080033E0C5F808E007EBC3010839E9607A60C8
:104E180047F83350CEF80C50831001219940914245
:104E280057D8114206D120F003004900114200F181
:104E38000400FAD007EBC0094D468646D5F80C8029
:104E4800454508D11DE1002B80F22481D8F80C805B
:104E5800454500F01681D8F8042022F00302931B80
:104E68000F2BF0DD2046D8E9025408EB060146F086
:104E78000106C8F80460EC60A56043F00104C7E9C6
:104E88000411C1E902CC4C6048F8023000F046FA3F
:104E980008F1080502E00C2323600025284603B02A
:104EA800BDE8F08F4FF4007340204FF03F0C73E7DC
:104EB800D3689A4208BF02307FF440AF3D69DFF8FB
:104EC80048C1654582D17A68831001219940914291
:104ED800A7D9BD686B6823F003094E4503D8A9EB31
:104EE80006030F2B7ADCDFF824B1494BDBF80020EE
:104EF8001B680132334405EB090A00F0338103F5DE
:104F080080530F3323F47F6828F00F08414620466A
:104F180000F00AFA411C024600F0F380824500F2D4
:104F2800EE803C4B196841441960084600F04E81F8
:104F3800DBF80010019301311BBFA2EB0A0A5044B1
:104F4800CBF80020186012F0070B00F01781CBF1A6
:104F580008010A44CBF5805190440831A1EB0801BF
:104F6800C1F30B0A51462046009200F0DDF9421CBD
:104F7800DDE9002300F04F81801A00EB0A08196868
:104F8800BA6048F001005144BD425060196000F019
:104F98002981B9F10F0F40F227816868A9F10C0C3B
:104FA8002CF0070C00F0010040EA0C0068604FF09C
:104FB800050E05EB0C00BCF10F0FC0E901EE00F285
:104FC800328150681546144B1A688A4238BF1960F6
:104FD800124B1A688A4238BF196094E0AA1943F044
:104FE800010346F001066E602046BA60536000F087
:104FF80095F90835284603B0BDE8F08FD9681A44FA
:10500800A1E600BF500400205804002058080020E2
:10501800480A0020180A0020400A0020440A0020FC
:10502800B2F5206F4FEA522363D3142B00F2B780F6
:1050380003F15C01C9005B3307EB010E7958AEF14F
:10504800080E8E4500F091804B6823F003039342CD
:1050580002D989688E45F7D1D1F80CE07A68C5E99C
:10506800021ECEF80850CD60D6E6142B59D9542B21
:1050780000F29D80330B03F16F0003F16E0CC30047
:105088008AE60EF1010E1EF0030F05F108057FF404
:10509800D5AE51E0424445465368D8F80C1043F069
:1050A8000103536055F8083F2046D9608B6000F033
:1050B80035F9F3E6F00806F1080237E62A442046F7
:1050C800536843F001035360083500F027F9E5E61B
:1050D800A919204646F0010643F001046E60C7E9AD
:1050E8000411C1E902CC4C60AB5000F017F9083547
:1050F800D4E6930903F13901C90038339CE7BD426E
:105108005FD0BD68686820F003084645A8EB060331
:1051180002D80F2B3FF762AF204600F0FFF80025BA
:10512800BCE603F15C0003F15B0CC30034E659F8FC
:1051380008394B4540F0968010F0030F00F1FF301E
:10514800F5D17B6823EA01037B60490099423FF669
:10515800C0AE19B9BDE649000EF1040E1942FAD0E5
:10516800704667E603F11008D0E69A104FF0010880
:105178007B6808FA02F21A437A6070E702EB0801CA
:105188004942C1F30B0A51462046009200F0CCF880
:10519800431CDDE900237FF4EFAEDA46EFE6542B3B
:1051A80025D8130B03F16F01C9006E3344E7B3F53B
:1051B800AA7F25D8F30B03F1780003F1770CC3001D
:1051C800EAE5294B186840441860B1E6CAF30B0CAD
:1051D800BCF1000F7FF4ACAEBD68C84448F00100D4
:1051E8006860F0E61546EEE60123536094E7B3F5F0
:1051F800AA7F23D8D30B03F17801C90077331BE7C3
:1052080040F25452934223D8B30C03F17D0003F1CA
:105218007C0CC300C0E5ABF1080BD844A8EB02082E
:105228004FF0000AABE605F108012046009300F0B4
:1052380003F9BD68009B68681968C4E640F25451D8
:105248008B420BD8930C03F17D01C9007C33F3E644
:105258004FF47E737F204FF07E0C9DE54FF47E71F6
:105268007E23E9E67B6870E7180A0020830730B5DB
:1052780048D0541E002A3FD0CAB2034601E0013C80
:105288003AD303F8012B9D07F9D1032C2DD9CDB2C0
:1052980045EA05250F2C45EA054536D9A4F1100243
:1052A80022F00F0C03F1200EE6444FEA121C03F122
:1052B800100242E9045542E9025510327245F8D10C
:1052C8000CF1010214F00C0F03EB021204F00F0CA6
:1052D80013D0ACF1040323F003030433134442F85E
:1052E800045B9342FBD10CF003042CB1CAB21C44FA
:1052F80003F8012B9C42FBD130BD64461346002CB9
:10530800F4D1F9E703461446BFE71A46A446E0E796
:10531800014800F097B900BF500A0020014800F08A
:1053280093B900BF500A002038B5074D0022044643
:1053380008462A60FBF7D0FA431C00D038BD2B681A
:10534800002BFBD0236038BD540A0020024B13B158
:10535800024800F005B870470000000075530008C7
:10536800002301461A46184600F070B938B5084BB4
:10537800084D5B1B9C1007D0043B1D44013C55F8AD
:1053880004399847002CF9D1BDE8384000F0AAB993
:10539800188C0008148C0008F8B5244F0C460646F3
:1053A800FFF7B6FFBA685568C4F57E630F3325F07A
:1053B80003052B4423F47F6323F00F03A3F58054E4
:1053C800B4F5805F07DB00213046FFF7ADFFBB680F
:1053D8002B44984204D03046FFF7A0FF0020F8BDC8
:1053E80061423046FFF7A0FF01300DD0104ABB687C
:1053F8002D1B45F001055D60136830461B1B1360CB
:10540800FFF78CFF0120F8BD00213046FFF78CFF25
:10541800BA68831A0F2BDEDD43F001035360054B96
:1054280003491B68C01A0860D5E700BF5004002074
:10543800180A002058080020002961D0F8B50C4649
:105448000646FFF765FF54F8042C7B4FA4F10805C6
:1054580022F0010105EB010CB868DCF80430604566
:1054680023F0030300F08B80D207CCF8043032D449
:1054780054F8082CAD1A1144AA6807F108008242B2
:105488006AD00CEB0304D4F804E0EC68D4601EF096
:10549800010FA26000F0978041F001036B60CCF827
:1054A8000010B1F5007F35D27A68CB084809012190
:1054B800013381401143796007EBC30257F8331079
:1054C800083AC5E9021247F83350CD603046BDE8C6
:1054D800F840FFF723BF0CEB03025268D00710D443
:1054E800194407F10800DCF80830834273D0DCF86F
:1054F8000C20DA60936041F001036B606950D0E7DB
:10550800704741F00103B1F5007F44F8043CCCF842
:105518000010C9D3B1F5206F4FEA512348D28B0947
:1055280003F1390003F13802C300F818FB580838B2
:10553800984259D05A6822F003028A4202D99B68DD
:105548009842F7D1D868C5E902308560DD603046F9
:10555800BDE8F840FFF7E2BE0CEB03025268D20741
:1055680063D40B44DCE90212CA60916043F0010283
:105578006A603046EB50BDE8F840FFF7CFBE0B44F9
:10558800D10707D454F8082CAD1A1344D5E90212F0
:10559800CA60916043F001026A60284ABD601268DF
:1055A8009A4293D8264B30461968FFF7F5FE8DE7E7
:1055B800142B0AD9542B1FD80B0B03F16F0003F1DE
:1055C8006E02C300B1E719448DE703F15C0003F1F3
:1055D8005B02C300A9E741F00103C7E90455C5E927
:1055E80002006B60695071E779689210012404FA2F
:1055F80002F20A437A60A6E7B3F5AA7F06D8CB0B76
:1056080003F1780003F17702C3008EE740F25452A9
:10561800934206D88B0C03F17D0003F17C02C30092
:1056280083E74FF47E737E227FE741F001036B60CE
:10563800CCF800104AE700BF500400205C080020A6
:10564800480A0020704700BF704700BF2DE9F047A7
:10565800DFF87CA00646DAF8000098460F46914627
:10566800FFF7F0FF1B4B1B68D3F8484124B365686C
:105678001F2D26DC5EB96B1C0235DAF8000063606A
:1056880044F82570FFF7E0FF0020BDE8F08704EB41
:1056980085010123C1F88890D4F88821AB401A43CA
:1056A800022EC4F88821C1F80881E4D1D4F88C21ED
:1056B8001343C4F88C31DEE703F5A674C3F84841F8
:1056C800D5E7DAF80000FFF7BFFF4FF0FF30DCE75F
:1056D80060080020008C0008F8B500BFF8BC08BCC2
:1056E8009E467047F8B500BFF8BC08BC9E46704798
:1056F800303A00006D6F756E74206661696C000049
:105708006D6F756E74204F4B0000000074657374E4
:105718002E747874000000006F70656E20666169F1
:105728006C0000006F70656E204F4B000000000099
:105738000000000001020304060708090000000039
:1057480001020304A0860100400D0300801A060030
:1057580000350C0040420F0080841E0000093D0007
:1057680000127A000024F40000366E010048E801B7
:10577800006CDC02000000000000000000000000D7
:1057880000000404040404000004000014140A00C7
:10579800000000000000000000000A0A1F0A0A1F9B
:1057A8000A0A000000040E1505060C14150E040064
:1057B800000012150D152E2C2A1200000000040AF4
:1057C8000A36151529160000020201000000000023
:1057D800000000001008080404040404080810006D
:1057E8000204040808080808040402000000000471
:1057F800150E0E150400000000000008083E0808F9
:10580800000000000000000000000000020201008B
:1058180000000000003F0000000000000000000041
:105828000000000000020000002010100808040416
:105838000202010000000E1111111111110E0000D9
:105848000000040604040404040E000000000E1105
:1058580011080402011F000000000E11100C1010A6
:10586800110E00000000080C0C0A091F081C00009B
:1058780000001F01010F1110110E000000000C1292
:10588800010D1311110E000000001E100808040479
:105898000404000000000E11110E1111110E000079
:1058A80000000E1111191610090600000000000072
:1058B80004000000000400000000000000040000D4
:1058C800000404000000100804020204081000008C
:1058D800000000003F003F0000000000000002043C
:1058E800081010080402000000000E11110804043A
:1058F8000004000000001C22292D2D1D221C000080
:10590800000004040C0A0A1E1233000000000F12E3
:10591800120E1212120F000000001E1101010101E7
:10592800110E000000000F1212121212120F0000C6
:1059380000001F120A0E0A02121F000000001F12A8
:105948000A0E0A020207000000001C1201013911A8
:10595800120C000000003312121E12121233000043
:1059680000001F0404040404041F000000003E0893
:105978000808080808080907000037120A060A126A
:10598800123700000000070202020202223F000054
:1059980000003B1B1B1B15151535000000003B12B2
:1059A80016161A1A1217000000000E111111111103
:1059B800110E000000000F12120E02020207000072
:1059C80000000E1111111117190E180000000F1206
:1059D800120E0A121237000000001E1101060810EC
:1059E800110F000000001F1504040404040E000039
:1059F8000000331212121212120C000000003312AF
:105A0800120A0A0C040400000000151515150E0AE8
:105A18000A0A000000001B0A0A04040A0A1B000004
:105A280000001B0A0A0A0404040E000000001F09F3
:105A380008040402121F00001C04040404040404E3
:105A480004041C00000202040404080808101000E2
:105A58000E0808080808080808080E00040A0000CC
:105A6800000000000000000000000000000000002E
:105A78000000003F020400000000000000000000D9
:105A880000000000000C121C123C0000000302027F
:105A9800020E1212120E000000000000001C12027A
:105AA800120C000000181010101C1212123C0000FA
:105AB80000000000000C121E021C00000018240444
:105AC800041E0404041E000000000000003C120C28
