:020000040800F2
:1000000000800120010900082508000827080008D1
:10001000290800082B0800082D080008000000002F
:100020000000000000000000000000002F08000891
:1000300031080008000000003308000835080008F7
:100040005109000851090008510900085109000828
:100050005109000851090008510900085109000818
:100060005109000851090008510900085109000808
:1000700051090008510900085109000851090008F8
:1000800051090008510900085109000851090008E8
:1000900051090008510900085109000851090008D8
:1000A00051090008510900085109000851090008C8
:1000B00051090008510900085109000851090008B8
:1000C00051090008510900085109000851090008A8
:1000D0005109000851090008510900085109000898
:1000E0005109000851090008510900085109000888
:1000F0005109000851090008510900085109000878
:100100005109000851090008510900085109000867
:100110005109000851090008510900085109000857
:100120005109000851090008510900085109000847
:100130005109000851090008510900085109000837
:100140005109000851090008510900085109000827
:100150005109000851090008510900085109000817
:100160005109000851090008510900085109000807
:100170005109000851090008510900080000000059
:080180005109000851090008B3
:1001880010B5054C237833B9044B13B10448AFF3C9
:1001980000800123237010BD3C04002000000000F3
:1001A8007437000808B5034B1BB103490348AFF384
:1001B800008008BD000000004004002074370008DB
:1001C80053B94AB9002908BF00281CBF4FF0FF31B6
:1001D8004FF0FF3000F074B9ADF1080C6DE904CEB2
:1001E80000F006F8DDF804E0DDE9022304B070470A
:1001F8002DE9F047089E0D4604468846002B4DD150
:100208008A42944668D9B2FA82F252B101FA02F3EC
:10021800C2F1200120FA01F10CFA02FC41EA0308BC
:1002280094404FEA1C45210CB8FBF5FE1FFA8CF7E9
:1002380005FB1E8341EA03430EFB07F199420BD9E4
:100248001CEB03030EF1FF3080F01E81994240F24F
:100258001B81AEF1020E63445B1AA4B2B3FBF5F046
:1002680005FB103344EA034400FB07F7A7420AD909
:100278001CEB040400F1FF3380F00881A74240F230
:10028800058164440238E41B40EA0E4000211EB197
:10029800D4400023C6E90043BDE8F0878B4208D963
:1002A800002E00F0EE800021C6E900050846BDE8F2
:1002B800F087B3FA83F100294AD1AB4202D38242D4
:1002C80000F2F980841A65EB030301209846002E9A
:1002D800E2D0C6E90048DFE702B9FFDEB2FA82F2EF
:1002E800002A40F09180A1EB0C054FEA1C471FFA49
:1002F8008CFE0121B5FBF7F307FB1350250C45EAEB
:1003080000450EFB03F0A84208D91CEB050503F1D4
:10031800FF3802D2A84200F2CB8043462D1AA4B27D
:10032800B5FBF7F007FB105544EA05440EFB00FE49
:10033800A64508D91CEB040400F1FF3502D2A645F6
:1003480000F2BB802846A4EB0E0440EA03409EE777
:10035800C1F120078B4022FA07FC4CEA030C20FA73
:1003680007F405FA01F31C43FD404FEA1C4900FA63
:1003780001F3B5FBF9F8200C1FFA8CFE09FB1855A0
:1003880040EA054508FB0EF0A84202FA01F20BD933
:100398001CEB050508F1FF3A80F08880A84240F27E
:1003A8008580A8F1020865442D1AA4B2B5FBF9F0BE
:1003B80009FB105544EA054500FB0EFEAE4508D979
:1003C8001CEB050500F1FF346CD2AE456AD9023842
:1003D800654440EA0840A0FB0294A5EB0E05A5423F
:1003E800C846A64656D353D05EB1B3EB080265EBB8
:1003F8000E0505FA07F722FA01F3CD401F43C6E9B7
:1004080000750021BDE8F087C2F1200320FA03F14E
:100418000CFA02FC25FA03F395400D434FEA1C47FA
:100428001FFA8CFEB3FBF7F107FB11302B0C43EAE4
:10043800004301FB0EF0984204FA02F408D91CEBC1
:10044800030301F1FF382FD298422DD902396344B2
:100458001B1AADB2B3FBF7F007FB103345EA0345AF
:1004680000FB0EF3AB4208D91CEB050500F1FF3881
:1004780016D2AB4214D902386544ED1A40EA01415C
:1004880038E73146304607E78646E5E61846FAE695
:100498004B45A9D2B9EB020864EB0C0E0138A3E76F
:1004A8004046EAE7204694E74146D1E7D0467BE755
:1004B800023B654432E7084609E76444023842E7EC
:1004C800704700BF00B58BB00023059306930793D0
:1004D8000893099303F1804303F50433DA6C42F07F
:1004E8000402DA64DA6C02F004020192019ADA6C0E
:1004F80042F08002DA64DA6C02F080020292029A18
:10050800DA6C42F00102DA64DA6C02F0010203925A
:10051800039ADA6C42F00202DA64DB6C03F002033D
:100528000493049B4FF4005305934FF4041306936C
:1005380005A9034800F0B6FF0BB05DF804FB00BF47
:100548000008004872B6FEE700B597B044220021C3
:1005580005A803F049F8002300930193029303933D
:1005680004934FF4007001F0B1F820BB0223059307
:100578004FF480720892102209920F93109301226F
:1005880011920A221292072213921493159305A826
:1005980001F086F988B90F23009303230193002300
:1005A8000293039304930421684601F087FC30B951
:1005B80017B05DF804FBFFF7C5FFFFF7C3FFFFF7B0
:1005C800C1FF0000F0B585B000F0D2FEFFF7BCFF18
:1005D800FFF778FF00F060F800F02EF900F082F8DD
:1005E800002000F033FB0123029310230193002421
:1005F80000944FF6FF73244A21461E2000F0A2FA09
:1006080016E004EB4401C900103189B201230293BA
:1006180018230193002300934FF6FF731B4A1E20F3
:1006280000F090FA0134E4B24FF4FA6000F0C8FE2A
:1006380000F04AFD0028E4D1012702971024019414
:10064800002600964FF6FF73114A21461E2000F03F
:1006580079FA00F01DFD05460297019400964FF6C1
:10066800FF730C4A20211E2000F06CFA03970294B5
:1006780001964FF6FF73009308232A4620214E2047
:1006880000F08EFAFEE700BF8C370008A437000898
:10069800B0370008C037000808B51048104B036091
:1006A8004FF482734360002383604FF4E062C260BA
:1006B800036143614FF400728261C3610362436264
:1006C80083620722C26203630823436302F081F94D
:1006D80000B908BDFFF736FFFBE700BF580400204C
:1006E8000030014008B51148114B03604FF4827384
:1006F8004360002383604FF4E062C260022202611B
:10070800012242614FF4007282613822C2610362A1
:10071800436283620722C2620363436302F059F9AA
:1007280000B908BDFFF70EFFFBE700BFBC040020BF
:10073800003C004000B58BB0002305930693079357
:10074800089309930368254A934205D0244A9342A3
:1007580023D00BB05DF804FB224B1A6E42F4805292
:100768001A661A6E02F480520192019ADA6C42F00B
:100778000102DA64DB6C03F001030293029BA023FD
:10078800059302230693032308930523099305A9D8
:100798004FF0904000F086FEDBE7124B9A6D42F472
:1007A80000429A659A6D02F400420392039ADA6C49
:1007B80042F00402DA64DB6C03F004030493049B44
:1007C8004FF4E0530593022306930323089306236B
:1007D800099305A9044800F065FEBAE70030014016
:1007E800003C0040001002400008004882B00A4B5C
:1007F8001A6E42F001021A661A6E02F001020092A5
:10080800009A9A6D42F080529A659B6D03F080536E
:100818000193019B02B0704700100240FEE7FEE71B
:10082800FEE7FEE7FEE770477047704708B500F03F
:10083800B5FD08BD7047000008B50B480B4B0360B9
:100848004FF4E133436000238360C36003610C22EB
:1008580042618361C3610362436202F070FE00B9C2
:1008680008BDFFF76FFEFBE72005002000440040AD
:1008780010B5AAB004460021259126912791289108
:100888002991882203A802F0AFFE2268184B9A42E9
:1008980001D02AB010BD0223039303A801F05AFD2A
:1008A80010BB144B9A6D42F400329A659A6D02F4AB
:1008B80000320192019ADA6C42F00102DA64DB6CD0
:1008C80003F001030293029B0C2325930223269332
:1008D80000232793032328930723299325A94FF05F
:1008E800904000F0DFFDD4E7FFF72CFED9E700BF0A
:1008F8000044004000100240DFF834D0FFF79AFFB0
:100908000C480D490D4A002302E0D458C450043362
:10091800C4188C42F9D30A4A0A4C002301E0136038
:100928000432A242FBD302F03BFEFFF74BFEFEE788
:1009380000800120000000203C040020206C0008FA
:100948003C040020B4050020FEE708B500F0F0FAEA
:1009580008BD08B500F000FB08BD10B5044600F05E
:10096800BFFA204600F0E4FA00F0C4FA10BD08B55A
:1009780000F0A0FA08BDF8B507460D4616461C4615
:100988002A20FFF7EAFF3846FFF7E3FF3046FFF774
:10099800E0FF2B20FFF7E1FF05F1140080B2FFF71D
:1009A800D8FF04F1140080B2FFF7D3FF2C20FFF723
:1009B800D4FFF8BD2DE9F84381460F461546984601
:1009C800BDF82060013B013A9BB292B2FFF7D3FF1A
:1009D80008E03046FFF7BDFF0134A4B2AC42F8D3BB
:1009E8000137BFB2474501D24C46F7E7BDE8F88367
:1009F80010B50B4614460246FFF7BDFF2046FFF729
:100A0800A8FF10BD2DE9F04F87B0834603910093EE
:100A1800BDF8403002939DF844301D4601939DF87F
:100A280048905F0813F00E0318BF012303EB15135A
:100A380003FB05F30493203AD3B205932B4600EB4E
:100A4800550292B20B449BB2013B013A9BB292B25F
:100A5800FFF791FF5E464FF0000A554649E0059BB7
:100A680003EB4303334A02EB830313F80A800024A1
:100A78001DE0314B059A03EB021313F80A80F6E7E1
:100A8800059B03EB43032D4A02EB031313F80A807B
:100A9800EDE70298FFF75DFF0135EDB2B5FBF7F31F
:100AA80007FB135313F0FF033FD00134E4B2072CC4
:100AB8001BD8B9F1000F08D148FA04F313F0010F5D
:100AC800E7D00098FFF745FFE6E748FA04F313F08C
:100AD800010F24D10136B6B2A6EB0B03BB42E4D119
:100AE800039B01339BB203935E460AF1010A1FFA86
:100AF8008AFA049B9A451AD2019B0C2BAFD0019B12
:100B0800102BB6D0019B182BBAD0019B202B0ED1ED
:100B18000B4B059A03EB821313F80A80A7E7009A98
:100B280003993046FFF764FFD4E71D46DDE707B0B9
:100B3800BDE8F08F14380008883C000878420008A7
:100B4800485400082DE9F04784B004468846154605
:100B58001F46BDF830A09DF834609DF838900DE030
:100B6800CDF808900196CDF800A03B4641462046B6
:100B7800FFF748FF04EB5604A4B201352A78002A8F
:100B8800EED104B0BDE8F0870246012002E002FB86
:100B980000F019464B1EDBB20029F8D1704700005F
:100BA8002DE9F04F87B08046059117461D46BDF8E0
:100BB8004090BDF844A09DF848609DF84CB0CDF831
:100BC80008B00196CDF800A04B461F4AFFF7BAFFC0
:100BD800002413E0A01C06FB00F000EBD07008EB2B
:100BE8006000CDF808B00196CDF800A04B4637322A
:100BF800059980B2FFF706FF0134E4B2AC421FD278
:100C0800291BC9B20139C9B21020FFF7BDFFB7FBD4
:100C1800F0F202F00F02092ADCD8A01C06FB00F053
:100C280000EBD07008EB6000CDF808B00196CDF865
:100C380000A04B463032059980B2FFF7E3FEDBE7B0
:100C480007B0BDE8F08F00BF1038000810B582B0BB
:100C5800044600F0CBF800F031F96420FFF787FE76
:100C680000F035F96420FFF782FE00F08BF964206C
:100C7800FFF77DFE1120FFF770FE7820FFF777FE63
:100C88003620FFF76AFE0020FFF75FFE3A20FFF7E5
:100C980064FE0520FFF759FEB220FFF75EFE0C2028
:100CA800FFF753FE0C20FFF750FE0020FFF74DFE24
:100CB8003320FFF74AFE3320FFF747FEB720FFF740
:100CC8004CFE3520FFF741FEBB20FFF746FE3220E1
:100CD800FFF73BFEC220FFF740FE0120FFF735FE7D
:100CE800C320FFF73AFE1520FFF72FFEC420FFF7B9
:100CF80034FE2020FFF729FEC620FFF72EFE0F2026
:100D0800FFF723FED020FFF728FEA420FFF71DFEE3
:100D1800A120FFF71AFEE020FFF71FFED020FFF703
:100D280014FE0820FFF711FE0E20FFF70EFE092023
:100D3800FFF70BFE0920FFF708FE0520FFF705FE69
:100D48003120FFF702FE3320FFF7FFFD4820FFF7B1
:100D5800FCFD1720FFF7F9FD1420FFF7F6FD15201D
:100D6800FFF7F3FD3120FFF7F0FD3420FFF7EDFD2D
:100D7800E120FFF7F2FDD020FFF7E7FD0820FFF79D
:100D8800E4FD0E20FFF7E1FD0920FFF7DEFD092055
:100D9800FFF7DBFD1520FFF7D8FD3120FFF7D5FD64
:100DA8003320FFF7D2FD4820FFF7CFFD1720FFF7CC
:100DB800CCFD1420FFF7C9FD1520FFF7C6FD312033
:100DC800FFF7C3FD3420FFF7C0FD2120FFF7C5FD65
:100DD8002920FFF7C2FD00944FF48C73F022002104
:100DE8000846FFF7E7FD02B010BD000070B588B0F7
:100DF80000230393049305930693079303F1804319
:100E080003F50433DA6C42F00102DA64DA6C02F0BA
:100E180001020192019ADA6C42F00202DA64DB6C98
:100E280003F002030293029B01224FF480714FF0FA
:100E3800904000F03DFC1E4D01224FF48061284691
:100E480000F036FC01221021284600F031FC012276
:100E58002021284600F02CFC4FF4807303930124D2
:100E6800049405940226069603A94FF0904000F0DA
:100E780019FB4FF48063039304940594069603A921
:100E8800284600F00FFB102303930494059406965C
:100E980003A9284600F006FB202303930494059435
:100EA800069603A9284600F0FDFA08B070BD00BFF9
:100EB8000004004808B500F083FA08BD08B5002210
:100EC8004FF480714FF0904000F0F2FB08BD08B578
:100ED80001224FF480714FF0904000F0E9FB08BD0B
:100EE80008B500224FF48061014800F0E1FB08BD1D
:100EF8000004004808B501224FF48061014800F061
:100F0800D7FB08BD0004004808B50022102102489C
:100F180000F0CEFB08BD00BF0004004808B5012260
:100F28001021024800F0C4FB08BD00BF00040048BF
:100F380000B583B08DF80700FFF7E6FF0A2301220A
:100F48000DF10701034801F0B3FDFFF7E7FF03B018
:100F58005DF804FB5804002000B583B0030A8DF83F
:100F680004308DF80500FFF7CFFF0A23022201A9FC
:100F7800034801F09DFDFFF7D1FF03B05DF804FBC6
:100F88005804002008B501222021024800F090FBF7
:100F980008BD00BF0004004838B5054641F2883452
:100FA800FF2000F069F980B2A84203D014B1013CD7
:100FB800A4B2F5E70CB9012038BD0020FCE7F8B56C
:100FC80007460C4615461E4600F096F9FF2000F02D
:100FD80053F900F09BF947F0400000F04DF9200E5E
:100FE80000F04AF9C4F3074000F046F9C4F30720BB
:100FF80000F042F9E0B200F03FF9284600F03CF971
:101008000024FF2000F038F905460134E4B2C82C6A
:1010180001D8FF28F5D00EB92846F8BD00F06CF9C4
:10102800FAE7000070B50546184B1B78042B00D072
:101038004902012300221120FFF7C1FF064608B12B
:10104800304670BD00F062F9FE20FFF7A5FF0646A6
:1010580010B94FF400740AE000F04EF90126EFE7EA
:10106800FF2000F009F905F8010B013CA4B2002C9F
:10107800F6D1FF2000F000F9FF2000F0FDF800F0A5
:101088003BF9FF2000F0F8F8DAE700BFA8050020D8
:1010980000B5ADF5017D4FF4007200216846FFF7F9
:1010A800C1FF9DF8C6319DF8C70103EB00239DF8E9
:1010B800C80103EB00439DF8C90103EB00600DF57F
:1010C800017D5DF804FB000030B583B0FFF70AFB33
:1010D80000F0E8F800F010F9002404E0FF2000F028
:1010E800CBF80134A4B2092CF8D9002401239522A5
:1010F80000210846FFF763FF0134A4B2012801D09C
:10110800C72CF3D9C82800F0B18000F0FFF80123FC
:1011180087224FF4D5710820FFF751FF04460528B0
:1011280004D001284DD0204603B030BD514B0122D8
:101138001A7000F0E1F8FF2000F09EF80025012366
:10114800002211463720FFF73AFF0446FF28EAD06D
:101158000123002211462920FFF731FF0135ADB2E6
:1011680010B1B5F5C87FEAD3B5F5C87F12D1002410
:101178000123002211461846FFF721FF0134A4B2CB
:1011880010B1B4F5C87FF3D3B4F5C87F70D0394B2C
:1011980000221A70FFF7A6FAFF2000F06DF801236D
:1011A800952200213B20FFF70AFF04460028BAD108
:1011B800012395224FF400711020FFF700FF044629
:1011C800B1E7FF2000F058F8FF2000F055F8FF20A5
:1011D80000F052F8FF2000F04FF800F08DF8FF20E3
:1011E80000F04AF80123002211463720FFF7E7FEF6
:1011F8000446012897D1012300224FF0804129207D
:10120800FFF7DDFE0028EDD100231A4619463A20E3
:10121800FFF7D5FE044610BBFF2000F02DF8054669
:101228008DF80000FF2000F027F88DF80100FF205E
:1012380000F022F88DF80200FF2000F01DF88DF86C
:10124800030000F059F8FF2000F016F815F0400FE1
:1012580008D0084B04221A70FFF744FA63E700F03D
:101268004BF860E7034B02221A70F5E701245AE7AE
:10127800012458E7A805002000B587B08DF80F00B5
:101288004FF47A73009301230DF117020DF10F014A
:10129800034801F00CFD9DF8170007B05DF804FB4A
:1012A800BC04002030B587B0002401940294039454
:1012B800049405940E4BDA6C42F00802DA64DB6C95
:1012C80003F008030093009B0A4D012204212846DD
:1012D80000F0EEF9042301930123029303940223FF
:1012E800049301A9284600F0DDF807B030BD00BF1F
:1012F80000100240000C004808B5012204210248F1
:1013080000F0D6F908BD00BF000C004808B500225F
:101318000421024800F0CCF908BD00BF000C0048C9
:10132800104B1B780BB90120704710B504464FF4D9
:101338007A70B0FBF3F30C4A1068B0FBF3F000F0DE
:101348009DF868B90F2C01D901200AE00022214636
:101358004FF0FF3000F05AF8044B1C60002000E00A
:10136800012010BD0400002000000020080000201B
:1013780010B5094A136843F480731360032000F022
:1013880033F80020FFF7CCFF10B10124204610BD30
:101398000446FFF72BFAF9E700200240034B1B78BD
:1013A800034A11680B441360704700BF0400002013
:1013B800AC050020014B1868704700BFAC05002041
:1013C80038B50446FFF7F6FF0546B4F1FF3F02D0F3
:1013D800044B1B781C44FFF7EDFF401BA042FAD3D7
:1013E80038BD00BF04000020074AD36823F4E06337
:1013F8001B041B0C000200F4E060034343F0BF63CE
:1014080043F40033D360704700ED00E000B5194B9A
:10141800DB68C3F30223C3F1070CBCF1040F28BF38
:101428004FF0040C03F1040EBEF1060F18D9033B6C
:101438004FF0FF3E0EFA0CFC21EA0C0199400EFA1F
:1014480003F322EA0303194300280BDB0901C9B29D
:1014580000F1604000F5614080F800135DF804FB7E
:101468000023E5E700F00F000901C9B2024B195447
:10147800F4E700BF00ED00E014ED00E00138B0F142
:10148800807F0BD24FF0E0235861054AF02182F8A3
:1014980023100020986107221A61704701207047C5
:1014A80000ED00E070B582B000236EE085685E0054
:1014B8000324B44025EA0405CC68B4402C43846076
:1014C800456825EA0C054C68C4F300149C402C437D
:1014D80044606DE0C56A25EA0C0CC4F3C0049C4066
:1014E80044EA0C04C46269E0DD08083550F8256058
:1014F80003F007044FEA840C0F2404FA0CF426EADC
:10150800040E0C6904FA0CF444EA0E0440F8254071
:101518006CE0062400E0002404FA0EF42C430CF1DD
:10152800020C5F4D45F82C405E4CA568D44325EA73
:101538000206D1F804C01CF4801F01D042EA050657
:10154800584DAE60ED6804EA0506D1F804C01CF4F5
:10155800001F01D042EA0506524DEE606D6804EAAC
:101568000506D1F804C01CF4003F01D042EA050684
:101578004C4D6E602D682C404E6816F4803F01D0AB
:1015880042EA0504474A146001330A6832FA03F450
:1015980000F083804FF0010C0CFA03FC1CEA0202F5
:1015A800F2D04C6804F00304013C012C7FF67EAFB6
:1015B8004C6804F0030EBEF1030F8BD04C6804F0A6
:1015C8000304032C0CD0C4685D004FF0030C0CFA24
:1015D80005FC24EA0C0C8C68AC4044EA0C04C4609A
:1015E8004C6804F00304022C3FF47EAF04684FEA11
:1015F800430E4FF0030C0CFA0EFC24EA0C0C4C685A
:1016080004F0030404FA0EF444EA0C0404604C6881
:1016180014F4403FB8D0244C256E45F001052566EA
:10162800246E04F001040194019C4FEA930C0CF120
:1016380002051B4C54F8255003F003044FEA840EAE
:101648000F2404FA0EF425EA0405B0F1904F3FF494
:1016580062AF164CA04216D004F58064A04214D0A4
:1016680004F58064A04212D004F58064A04210D032
:1016780004F58064A0420ED004F58064A0423FF4D3
:1016880048AF072448E7012446E7022444E7032437
:1016980042E7042440E705243EE702B070BD00BFDE
:1016A800000001400004014000100240000400480E
:1016B8000AB181617047816270470000024B186867
:1016C80000F4C060704700BF00700040B0F5007FB4
:1016D8000FD01F4B1B6803F4C063B3F5806F34D081
:1016E8001B4A136823F4C06343F48063136000202B
:1016F8007047174B1B6803F4C063B3F5007F20D015
:10170800134A136823F4C06343F400731360114B46
:101718001B68322202FB03F30F4AA2FB03239B0C34
:10172800013300E0013B0A4A526912F4806F01D08C
:10173800002BF7D1064B5B6913F4806F03D10020AF
:10174800704700207047032070470020704700BF93
:10175800007000400000002083DE1B4330B583B0DA
:101768000446204B9B6D13F0805F0BD0FFF7A6FF5C
:10177800B0F5007F17D0802C1FD82DD0702C2DD01D
:1017880000211BE0174DAB6D43F08053AB65AB6D8B
:1017980003F080530193019BFFF790FFAB6D23F09B
:1017A8008053AB65E4E7802C03D9A02C03D9022130
:1017B80004E0002102E0012100E003210A4A136845
:1017C80023F007030B431360136803F007038B42EE
:1017D80006D1002003B030BD0221EFE70121EDE77B
:1017E8000120F7E70010024000200240284A9368D1
:1017F800D26802F0030213F00C030AD00C2B06D0B7
:10180800042B1FD0082B20D00020024610E0012A0C
:10181800F6D11F4A126812F0080F0CD11C4AD2F8F0
:101828009420C2F303221B4951F8222043B100201F
:101838000C2B0DD07047164A1268C2F30312F2E758
:101848001046F5E714480022F2E714480022EFE7B3
:101858000F4BDB6803F00303022B16D0032B00D1D8
:101868000E4A0B49C868C0F30210431CC868C0F38D
:10187800062002FB00F0B0FBF3F0CB68C3F3416332
:1018880001335B00B0FBF3F0D4E7034AE9E700BF9C
:1018980000100240E03700080024F40000127A002B
:1018A800002800F0F182F0B583B00446964B9D689D
:1018B80005F00C05DE6806F00306036813F0100F48
:1018C8005AD0E5B10C2D18D0A369002B00F0BB80CD
:1018D8008D4A136843F001031360FFF76BFD074659
:1018E800894B1B6813F0020F40F09A80FFF762FDE6
:1018F800C01B0228F4D90320D1E2012EE4D1824B87
:101908001B6813F0020F03D0A369002B00F0BE82FE
:10191800206A7D4B1B6813F0080F5BD07A4B1B685D
:1019280003F0F00398425CD8774B1A6842F008023B
:101938001A601A6822F0F002216A0A431A605A688B
:1019480022F47F42E16942EA01225A60002D60D008
:10195800FFF74CFF6C4B9B68C3F303136B4AD35CD4
:1019680003F01F03D8406A4B18606A4B1868FFF7EA
:10197800D7FC002840F09382236813F0010F00F091
:101988008180082D75D00C2D71D06368B3F5803F28
:1019980000F09780B3F5A02F00F099805A4B1A6891
:1019A80022F480321A601A6822F480221A6063686E
:1019B800002B00F09980FFF7FDFC0746524B1B688F
:1019C80013F4003F5ED1FFF7F5FCC01B6428F5D97E
:1019D800032064E24C4BD3F894301B0903F0F00366
:1019E800A0E7FFF7BBFE002840F05282464B1A687A
:1019F80042F008021A601A6822F0F002216A0A43CB
:101A08001A605A6822F47F42E16942EA01225A6068
:101A18009EE7206AFFF7A2FE002899D001203EE247
:101A2800394B1A6842F008021A601A6822F0F0026C
:101A3800216A0A431A605A6822F47F42E16942EA3D
:101A480001225A6098E7304A136823F001031360B3
:101A5800FFF7B0FC07462C4B1B6813F0020F8BD026
:101A6800FFF7A8FCC01B0228F5D9032017E2032EB4
:101A78008BD1254B1B6813F4003F03D06368002B00
:101A880000F00882236813F0020F58D0042D45D0C7
:101A98000C2D41D0E368002B77D01B4A136843F420
:101AA80080731360FFF786FC0646174B1B6813F418
:101AB800806F61D1FFF77EFC801B0228F5D90320D7
:101AC800EDE1114A136843F4803313606FE703F1C3
:101AD8008043A3F53C331A6842F480221A601A68DE
:101AE80042F480321A6062E7FFF764FC0746064B4F
:101AF8001B6813F4003FC5D0FFF75CFCC01B6428CB
:101B0800F5D90320CBE100BF00100240C837000818
:101B18000000002008000020022EBBD1A34B1B6848
:101B280013F4806F03D0E368002B00F0B5819F4A5F
:101B3800536823F0F853216943EA0163536023682B
:101B480013F0080F4CD063699BB3984AD2F89430CD
:101B580043F00103C2F89430FFF72CFC0646934B80
:101B6800D3F8943013F0020F3AD1FFF723FC801B0F
:101B78000228F4D9032092E18C4A536823F0F853E1
:101B8800216943EA01635360D9E7884A136823F45B
:101B980080731360FFF70EFC0646844B1B6813F432
:101BA800806FCCD0FFF706FC801B0228F5D90320F4
:101BB80075E17E4AD2F8943023F00103C2F89430DC
:101BC800FFF7F8FB0646794BD3F8943013F0020F71
:101BD80006D0FFF7EFFB801B0228F4D903205EE153
:101BE800236813F0040F7AD0704B9B6D13F0805F5D
:101BF80036D16E4B9A6D42F080529A659B6D03F018
:101C080080530193019B0126694B1B6813F4807F65
:101C180028D0A368012B39D0052B3FD0634BD3F8CC
:101C2800902022F00102C3F89020D3F8902022F0EF
:101C38000402C3F89020A368002B3DD0FFF7BAFB3D
:101C480007465A4BD3F8903013F0020F46D1FFF7EE
:101C5800B1FBC01B41F288339842F2D903201EE140
:101C68000026D1E7524A136843F480731360FFF7E4
:101C7800A1FB07464E4B1B6813F4807FC9D1FFF7C1
:101C880099FBC01B0228F5D9032008E1474AD2F87E
:101C9800903043F00103C2F89030CCE7434BD3F8BF
:101CA800902042F00402C3F89020D3F8902042F02C
:101CB8000102C3F89020BEE7FFF77CFB07463B4BC9
:101CC800D3F8903013F0020F08D0FFF773FBC01B56
:101CD80041F288339842F2D90320E0E0EEB9A36AD2
:101CE800002B00F0DB80022B1DD00C2D00F0DD80D6
:101CF8002E4A136823F080731360FFF75BFB0446DA
:101D08002A4B1B6813F0007F00F0B780FFF752FBE7
:101D1800001B0228F4D90320C1E0244A936D23F064
:101D280080539365DBE7214BDB6803F00301E26A2C
:101D380091420FD00C2D00F0B4801C4B1B6813F09F
:101D4800806F40F0B080194B1B6813F0805F31D072
:101D58000120A4E003F07002216B0139B2EB011FEE
:101D6800E8D103F4FE42616BB2EB012FE2D103F438
:101D78000031A26B073A18BF01229142DAD103F46D
:101D8800C001E26B5208013AB1EB425FD2D103F0D5
:101D9800C063226C5208013AB3EB426FCAD1034BBD
:101DA8001B6813F0007F4ED0002078E0001002403E
:101DB800007000403E4A136823F080731360FFF7F9
:101DC800F9FA05463A4B1B6813F0007F06D0FFF777
:101DD800F1FA401B0228F5D9032060E0344AD368A1
:101DE80034491940E36A206B013843EA0013606BF9
:101DF80043EA0023E06B4008013843EA4053206C73
:101E08004008013843EA4063A06B000943EA4043B5
:101E18000B43D360136843F080731360D36843F0B7
:101E28008073D360FFF7C6FA0446214B1B6813F092
:101E3800007F06D1FFF7BEFA001B0228F5D9032060
:101E48002DE000202BE01A4B1A6842F080721A60CD
:101E5800DA6842F08072DA60FFF7ACFA0446144B95
:101E68001B6813F0007F06D1FFF7A4FA031B022BAF
:101E7800F5D9032013E0002011E00D4AD1680E4B7C
:101E88000B40D36000200AE001207047012006E0E3
:101E9800012004E0012002E0012000E0002003B05E
:101EA800F0BD0120FBE70120F9E70120F7E700BFBB
:101EB800001002408C809DF9FCFFEEFE002800F027
:101EC800AF8070B50D460446594B1B6803F00703F5
:101ED8008B420BD2564A136823F007030B43136057
:101EE800136803F007038B4240F09C80236813F0CB
:101EF800020F0CD0A2684F4B9B6803F0F0039A4284
:101F080005D94C498B6823F0F0031A438A6023688B
:101F180013F0010F39D06368032B09D0022B26D0A8
:101F280063BB444A126812F0020F06D1012076E022
:101F3800404A126812F0007F76D03E498A6822F043
:101F4800030213438B60FFF735FA0646394B9B684B
:101F580003F00C036268B3EB820F16D0FFF72AFA7E
:101F6800801B41F288339842F0D9032057E0314A68
:101F7800126812F4003FE0D1012050E02D4A1268A7
:101F880012F4806FD9D1012049E0236813F0020FC1
:101F98000CD0A268274B9B6803F0F0039A4205D245
:101FA80024498B6823F0F0031A438A60204B1B688E
:101FB80003F00703AB420AD91D4A136823F007034D
:101FC8002B431360136803F00703AB422ED1236839
:101FD80013F0040F06D0174A936823F4E063E1680E
:101FE8000B439360236813F0080F07D0114A9368D6
:101FF80023F46053216943EAC1039360FFF7F6FBBA
:102008000C4B9B68C3F303130B4AD35C03F01F0309
:10201800D8400A4B18600A4B1868FFF781F970BD61
:10202800012070470120FAE70120F8E70120F6E7D0
:102038000020024000100240C837000800000020BD
:1020480008000020014B1868704700BF00000020FE
:1020580008B5FFF7F7FF054B9B68C3F30223044A53
:10206800D35C03F01F03D84008BD00BF0010024036
:10207800D837000808B5FFF7E5FF054B9B68C3F3A1
:10208800C223044AD35C03F01F03D84008BD00BF35
:1020980000100240D8370008F8B504460F46594BDF
:1020A800DB6813F0030F18D0564BDB6803F003030B
:1020B8000268934202D001252846F8BD002A00F0A4
:1020C8009E80504BDB68C3F302130133426893428E
:1020D80001D00125F0E7002509E00368022B57D05D
:1020E800032B5CD0012B42D00125002DE4D1454AB9
:1020F800136823F080631360FFF75CF90646414BD1
:102108001B6813F0006F05D0FFF754F9831B022BEF
:10211800F5D90325002DCFD1002F4ED139490B69B0
:1021280023F41F3323F44073A068E26812095204B1
:1021380042EA002213430B61324A136843F080637A
:102148001360FFF737F906462E4B1B6813F0006F34
:1021580005D1FFF72FF9831B022BF5D90325002D95
:10216800AAD1284A1369A1690B431361A4E7254A38
:10217800126812F0020F1ED02248C26822F07302C1
:102188006168013943EA01131343C3600025ACE7D2
:102198001C4A126812F4806FEED10125A5E7194A8E
:1021A800126812F4003FE7D1164A126812F4802F21
:1021B800E2D1012599E7012597E7012F0FD01148B2
:1021C800026922F0C06222F4FE42A16863695B08DA
:1021D800013B5B0643EA012313430361ACE709486B
:1021E800026922F4C00222F4FE42A16823695B0856
:1021F800013B5B0543EA0123134303619CE7012587
:102208005AE700BF00100240F8B504460F46504B8D
:10221800DB6813F0030F18D04D4BDB6803F00303A2
:102228000268934202D001252846F8BD002A00F032
:102238008C80474BDB68C3F3021301334268934237
:1022480001D00125F0E7002509E00368022B57D0EB
:10225800032B5CD0012B42D00125002DE4D13C4A50
:10226800136823F080531360FFF7A4F80646384B31
:102278001B6813F0005F05D0FFF79CF8831B022B47
:10228800F5D90325002DCFD1002F4ED130494B6908
:1022980023F41F3323F44073A068E2681209520440
:1022A80042EA002213434B61294A136843F08053E2
:1022B8001360FFF77FF80646254B1B6813F0005F95
:1022C80005D1FFF777F8831B022BF5D90325002DDD
:1022D800AAD11F4A536961690B435361A4E71C4A99
:1022E800126812F0020F1ED01948C26822F0730259
:1022F8006168013943EA01131343C3600025ACE761
:10230800134A126812F4806FEED10125A5E7104A2E
:10231800126812F4003FE7D10D4A126812F4802FB8
:10232800E2D1012599E7012597E70948426922F09A
:10233800C06222F4FE42A16823695B08013B5B0688
:1023480043EA012313434361AEE701256CE700BF6D
:10235800001002402DE9F04182B00446036813F4EE
:10236800006F33D0436EB3F5000F1FD00CD823B3E2
:10237800B3F5800F05D100212030FFF745FF064651
:1023880020E001273E4623E0B3F5400F0BD100269D
:10239800604AD2F8883023F44003616E0B43C2F8D8
:1023A8008830002714E001273E4611E0594AD368D7
:1023B80043F48033D3600026EAE700210430FFF7B6
:1023C8006BFE0646002EE3D0374601E000273E4666
:1023D800236813F4805F30D0A36EB3F1007F1FD061
:1023E8000DD81BB3B3F1807F06D1002104F1200082
:1023F800FFF70AFF064605E001273E461DE0B3F158
:10240800407F0AD1C6B9434AD2F8883023F04073D6
:10241800A16E0B43C2F888300FE001273E460CE05E
:102428003C4AD36843F48033D360EBE70021201D96
:10243800FFF732FE0646E5E73746236813F4003F08
:1024480071D0344B9B6D13F0805F4ED1314B9A6D38
:1024580042F080529A659B6D03F080530193019B73
:102468004FF001082C4A136843F480731360FEF799
:10247800A1FF0546284B1B6813F4807F05D1FEF7A2
:1024880099FF401B0228F5D90326002E46D1214B7F
:10249800D3F8903013F4407316D0D4F884209A42BD
:1024A80012D01C4AD2F8903023F44073D2F890101E
:1024B80041F48031C2F89010D2F8901021F48031A4
:1024C800C2F89010C2F8903013F0010F10D1002E0E
:1024D80040F027810F4AD2F8903023F44073D4F8A3
:1024E80084100B43C2F8903019E04FF00008B9E7A8
:1024F800FEF760FF0546074BD3F8903013F0020F44
:10250800E5D1FEF757FF401B41F288339842F2D9D4
:102518000326DCE700100240007000403746B8F19F
:10252800000F40F00081236813F0010F08D09D4A86
:10253800D2F8883023F00303A16B0B43C2F888302C
:10254800236813F0020F08D0964AD2F8883023F097
:102558000C03E16B0B43C2F88830236813F0040FB7
:1025680008D0904AD2F8883023F03003216C0B430E
:10257800C2F88830236813F0080F08D0894AD2F8C7
:10258800883023F0C003616C0B43C2F8883023689D
:1025980013F0100F08D0834AD2F8883023F4407320
:1025A800A16C0B43C2F88830236813F0200F08D0C1
:1025B8007C4AD2F8883023F44063E16C0B43C2F8BC
:1025C8008830236813F4007F08D0764AD2F8883020
:1025D80023F44023E16D0B43C2F88830236813F4D9
:1025E800806F08D06F4AD2F8883023F44013216EE8
:1025F8000B43C2F88830236813F0400F08D0694AAB
:10260800D2F8883023F44053216D0B43C2F8883048
:10261800236813F0800F08D0624AD2F8883023F478
:102628004043616D0B43C2F88830236813F4807F00
:1026380008D05C4AD2F8883023F44033A16D0B43AC
:10264800C2F88830236813F4005F0FD0554AD2F8D7
:10265800883023F04063E16E0B43C2F88830E36EA4
:10266800B3F1006F65D0B3F1806F67D0236813F4BE
:10267800002F0FD04B4AD2F8883023F04063216FE7
:102688000B43C2F88830236FB3F1006F5ED0B3F10B
:10269800806F60D0236813F4802F0FD0414AD2F89E
:1026A800883023F04063616F0B43C2F88830636F52
:1026B800B3F1006F57D0B3F1806F59D0236813F48A
:1026C800804F0FD0374AD2F8883023F04053A16F9B
:1026D8000B43C2F88830A36FB3F1805F50D0B3F1D9
:1026E800005F55D0236813F4004F08D02D4AD2F864
:1026F800883023F08043E16F0B43C2F888302368A9
:1027080013F4803F09D0274AD2F8883023F00043D9
:10271800D4F880100B43C2F88830384602B0BDE8C0
:10272800F0813746FBE61F4A936D23F0805393658B
:10273800F9E6D36843F48013D36097E70121201D9D
:10274800FFF7AAFC002891D007468FE7D36843F427
:102758008013D3609EE70121201DFFF79DFC002810
:1027680098D0074696E7D36843F48013D360A5E76B
:102778000121201DFFF790FC00289FD007469DE708
:102788000221201DFFF788FC0028ABD00746A9E7E7
:10279800022104F12000FFF737FD0028A2D00746E8
:1027A800A0E700BF001002402DE9F04782B00546BF
:1027B800884617461E46FEF7FDFD0A9B1B1A03EBCB
:1027C8000609FEF7F7FD82462B4B1B68C3F3CB3394
:1027D80009FB03F301932B689C6838EA04030CBFD8
:1027E8004FF0010C4FF0000CBC4540D0B6F1FF3F54
:1027F800F1D0FEF7DFFDA0EB0A0048450AD2B9F197
:10280800000F07D0019A02B14A46019B013B019390
:102818009146E0E72A68536823F0E00353606B6849
:10282800B3F5827F0BD0AB6AB3F5005F14D00123F8
:1028380085F85D30002385F85C30032018E0AB682C
:10284800B3F5004F02D0B3F5806FECD12A68136856
:1028580023F040031360E6E72A68136823F4005363
:1028680013602A68136843F400531360DFE70020FD
:1028780002B0BDE8F08700BF000000202DE9F04756
:1028880082B006460C4615461F4600238DF80330D5
:10289800FEF790FD0A9B1B1A03EB0708FEF78AFD5B
:1028A8008146D6F800A0314B1B6803EB8303C3EBCA
:1028B800C3031B0D08FB03F3019302E0B7F1FF3FCD
:1028C80012D133689B6803EA040CAC454AD0B4F5CE
:1028D800C06FF3D1002DF1D19AF80C30DBB28DF82E
:1028E80003309DF80330E9E7FEF764FDA0EB09002B
:1028F80040450AD2B8F1000F07D0019A02B142460A
:10290800019B013B01939046DBE73268536823F053
:10291800E00353607368B3F5827F0BD0B36AB3F5F5
:10292800005F14D0012386F85D30002386F85C3000
:10293800032018E0B368B3F5004F02D0B3F5806FF9
:10294800ECD13268136823F040031360E6E732687D
:10295800136823F4005313603268136843F4005378
:102968001360DFE7002002B0BDE8F0870000002018
:1029780070B582B004460D46164600920B460022FA
:102988004FF4C051FFF77AFFB0B900962B460022EA
:1029980080212046FFF708FFA8B900962B460022A1
:1029A8004FF4C0612046FFF769FF50B1236E43F032
:1029B80020032366032004E0236E43F020032366EC
:1029C800032002B070BD236E43F02003236603206A
:1029D800F7E700286AD010B50446436A33B943685C
:1029E800B3F5827F05D00023C36102E000230361B1
:1029F80043610023A36294F85D30002B4DD002237D
:102A080084F85D302268136823F040031360E3689C
:102A1800B3F5E06F47D90022B3F5706F04D0B3F572
:102A2800E06F01D00023A362636803F48273A16896
:102A380001F404410B43216901F002010B43616970
:102A480001F001010B43A16901F400710B43E16935
:102A580001F038010B43216A01F080010B43A16AA0
:102A680001F4005120680B430360638B03F00403F7
:102A7800616A01F010010B43616B01F008010B431F
:102A8800E16801F470610B43216813434B60002037
:102A98002066012384F85D3010BD84F85C30204640
:102AA800FDF748FEABE74FF48052B5E701207047C9
:102AB8002DE9F04383B01D4690F85C30012B00F0FF
:102AC800F480044688469146012380F85C30FEF77E
:102AD80071FC074694F85D60F6B2012E40F0DD8087
:102AE800B8F1000F00F0DA80B9F1000F00F0D680DD
:102AF800032384F85D3000232366C4F83880A4F8E3
:102B08003C90A4F83E902364A4F84430A4F84630DE
:102B18002365E364A368B3F5004F1ED023681A68E1
:102B280012F0400F03D11A6842F040021A60E368BD
:102B3800B3F5E06F44D9636813B1B9F1010F20D13F
:102B4800A26B23681288DA60A36B0233A363E38F56
:102B58009BB2013B9BB2E38713E02268136823F022
:102B6800400313602268136843F480431360D5E779
:102B7800FEF720FCC01BA84202D3B5F1FF3F1AD1D3
:102B8800CDB1E38F9BB2002B6FD023689A6812F007
:102B9800020FEDD0A26B1288DA60A36B0233A36335
:102BA800B4F83EC01FFA8CFC0CF1FF3C1FFA8CFCF9
:102BB800A4F83EC0E5E7012384F85D3003266DE004
:102BC800636813B1B9F1010F32D1E38F9BB2012BC6
:102BD8000CD9A26B23681288DA60A36B0233A36353
:102BE800E38F9BB2023B9BB2E38721E0A26B236891
:102BF80012781A73A36B0133A363E38F9BB2013B73
:102C08009BB2E38714E0A36B1B781373A36B0133A8
:102C1800A363E38F9BB2013B9BB2E38708E0FEF717
:102C2800C9FBC01BA84202D3B5F1FF3F18D1BDB103
:102C3800E38F9BB2CBB12268936813F0020FEED0FA
:102C4800E38F9BB2012BDED9A36B1B88D360A36BE8
:102C58000233A363E38F9BB2023B9BB2E387E7E7B0
:102C6800012384F85D30032618E03A4629462046B9
:102C7800FFF77EFE08B120232366A36833B90193CA
:102C88002368DA6801929B680193019B236E2BB934
:102C9800012384F85D30002600E00226002384F832
:102CA8005C30304603B0BDE8F0830226F9E72DE931
:102CB800F8431F46089D90F85C30012B00F06B81AB
:102CC800044688469146012380F85C30FEF772FB83
:102CD800064694F85D30DBB26268012B0AD0B2F583
:102CE800827F40F04681A268002A40F04881042B88
:102CF80040F04781B8F1000F00F04581B9F1000FAD
:102D080000F04381002F00F0428194F85D30DBB27F
:102D1800042B02D0052384F85D3000232366C4F811
:102D28004090A4F84670A4F84470C4F83880E78747
:102D3800A787E3642365E368B3F5E06F01D8012F43
:102D480023D92268536823F48053536023681A6890
:102D580012F0400F03D11A6842F040021A60E3688B
:102D6800B3F5E06F5CD963680BB1012F0BD1A26B8F
:102D780023681288DA60A36B0233A363E38F9BB2E4
:102D8800013B9BB2E387012730E02268536843F494
:102D980080535360DAE7A26B1288DA60A36B0233C0
:102DA800A363E38F9BB2013B9BB2E38700272368B1
:102DB8009A6812F0010F11D0B4F8462092B26AB1A5
:102DC800DA68236C1A80236C02332364B4F8463023
:102DD8009BB2013B9BB2A4F846300127FEF7EAFA02
:102DE800831BAB4202D3B5F1FF3F14D1E38F9BB2F3
:102DF8002BB9B4F846309BB2002B00F0AB802368A7
:102E08009A6812F0020FD2D0E28F92B2002ACED086
:102E1800002FCCD0BFE7012384F85D300320A9E060
:102E280063680BB1012F0FD1E38F9BB2012B0DD932
:102E3800A26B23681288DA60A36B0233A363E38F63
:102E48009BB2023B9BB2E387012749E0A26B236850
:102E580012781A73A36B0133A363E38F9BB2013B10
:102E68009BB2E387F0E7E28F92B2012A0CD9A26BFA
:102E78001288DA60A36B0233A363E38F9BB2023B31
:102E88009BB2E38700273DE0A26B12781A73A36B0D
:102E98000133A363E38F9BB2013B9BB2E387002717
:102EA80030E02268536843F48053536001270DE0F3
:102EB800226C1B7B1370236C01332364B4F84630F7
:102EC8009BB2013B9BB2A4F846300127FEF772FA89
:102ED800801BA84202D3B5F1FF3F36D1002D34D074
:102EE800E38F9BB223B9B4F846309BB2002B31D0A4
:102EF80023689A6812F0020F04D0E28F92B20AB1E6
:102F0800002FB0D123689A6812F0010FDED0B4F810
:102F1800462092B2002AD9D0B4F8462092B2012AAB
:102F2800C6D9DA68236C1A80236C02332364B4F898
:102F380046309BB2023B9BB2A4F84630B4F8463008
:102F48009BB2012BADD90127C0E7012384F85D307E
:102F580003200FE0324629462046FFF709FD10B14D
:102F6800202323660120236E9BB9012384F85D305A
:102F780000E00220002384F85C30BDE8F8830220DA
:102F8800F8E70220F6E70120F4E70120F2E7012044
:102F9800F0E70120EEE70220EFE7026852E8003F81
:102FA80023F4907342E800310029F6D1026802F157
:102FB800080353E8003F23F00103083242E80031D8
:102FC8000029F3D1036E012B06D02023C0F88030EE
:102FD8000023036683667047026852E8003F23F0C7
:102FE800100342E800310029F6D1EEE710B5044697
:102FF800016883680269134342691343C269134332
:1030080008688E4A024013430B602268536823F411
:103018004053E1680B435360A1692268884B9A4288
:1030280001D0236A1943936823F430630B439360F8
:103038002368844A934210D0834A934221D0834A1A
:10304800934237D0824A93425CD0824A93426BD0F3
:103058007B4A93427DD010223AE002F55842D2F8DA
:10306800882002F00302032A09D8DFE802F00204EC
:10307800870601222CE004222AE0082228E01022F8
:1030880026E002F5E632D2F8882002F00C020C2A7B
:103098000ED8DFE802F0070D0D0D090D0D0D750DA9
:1030A8000D0D0B00002213E0042211E008220FE0AE
:1030B80010220DE002F5E432D2F8882002F0300246
:1030C800202A5FD01AD8002A5ED0102A5ED10422A6
:1030D8005B498B4276D0E069B0F5004F00F0A380E1
:1030E800082A00F20E81DFE812F0DD00F300DB00B1
:1030F8000C01F6000C010C010C01F900302A47D133
:103108000822E5E702F5E232D2F8882002F0C00290
:10311800802A3FD004D8FAB3402A3FD10422D7E707
:10312800C02A3DD10822D3E702F5E032D2F8882040
:1031380002F44072B2F5007F34D005D8A2B3B2F5DC
:10314800807F33D10422C3E7B2F5407F30D1082213
:10315800BEE702F5C832D2F8882002F44062B2F520
:10316800006F27D005D83AB3B2F5806F26D1042274
:10317800AEE7B2F5406F23D10822A9E70222A7E7FC
:103188000222A5E70222A3E70022A1E710229FE777
:1031980010229DE702229BE7002299E7102297E779
:1031A800102295E7022293E7002291E710228FE789
:1031B80010228DE702228BE7002289E7102287E799
:1031C800102285E7082A00F28C80DFE802F0088ADE
:1031D8002A8A278A8A8A05004FF4004003E0FEF70E
:1031E80037FF00287FD0626802EB420383427CD815
:1031F800B0EB023F7BD8010E00025308C0184FF015
:10320800000341F10001FCF7DBFFA0F54072124B0F
:103218009A426ED82368D860002055E0FEF7E6FA97
:10322800DFE70E48DFE7082A65D8DFE802F0193340
:103238000564366464641D00084815E0F369FFEF0F
:103248000080004000380140004400400048004031
:10325800004C004000500040FFFC0F000024F40028
:10326800FEF7F6FE002848D06268530803EB4000DA
:10327800B0FBF2F0A0F110024FF6EF739A423ED87D
:1032880083B223F00F03C0F3420018432368D860C9
:10329800002019E0FEF7EEFEE4E7FEF7A7FAE1E703
:1032A8001B4802E0FEF7D4FE68B3636800EB5300E6
:1032B800B0FBF3F0A0F110024FF6EF739A4224D856
:1032C800236880B2D86000200023A366E36610BD9F
:1032D800FEF7D0FEE8E7FEF789FAE5E74FF400408D
:1032E800E3E70120F0E70020EEE70120ECE701200A
:1032F800EAE70120E8E70120E6E70020E4E701200B
:10330800E2E70120E0E70020DEE70120DCE700BF7C
:103318000024F400436A13F0080F06D002685368CB
:1033280023F40043416B0B435360436A13F0010FCE
:1033380006D00268536823F40033816A0B43536054
:10334800436A13F0020F06D00268536823F48033EF
:10335800C16A0B435360436A13F0040F06D0026836
:10336800536823F48023016B0B435360436A13F0C3
:10337800100F06D00268936823F48053816B0B43C7
:103388009360436A13F0200F06D00268936823F411
:103398000053C16B0B439360436A13F0400F0AD08C
:1033A8000268536823F48013016C0B435360036C69
:1033B800B3F5801F0BD0436A13F0800F06D0026864
:1033C800536823F40023816C0B43536070470268F1
:1033D800536823F4C003416C0B435360EBE72DE9BA
:1033E800F84305460F4616469946DDF820802C68B6
:1033F800E46937EA04030CBF4FF0010C4FF0000CEE
:10340800B44532D1B8F1FF3FF1D0FDF7D3FFA0EBBF
:10341800090040452CD8B8F1000F2BD02B681A684A
:1034280012F0040FE3D0DA6912F0080F11D1DA694B
:1034380012F4006FDBD04FF400621A622846FFF7DF
:10344800ACFD2023C5F88430002385F878300320AC
:103458000CE008241C622846FFF79FFDC5F884404D
:10346800002385F87830012000E00020BDE8F883CB
:103478000320FBE70320F9E730B583B004460023B7
:10348800C0F88430FDF796FF05462268126812F0EE
:10349800080F0FD123681B6813F0040F26D12023CF
:1034A800E367C4F8803000202066606684F87800FE
:1034B80003B030BD6FF07E430093034600224FF403
:1034C80000112046FFF78BFF0028E3D0226852E85E
:1034D800003F23F0800342E800310029F6D1202381
:1034E800E367002384F878300320E1E76FF07E4338
:1034F80000932B4600224FF480012046FFF76FFF10
:103508000028CCD0226852E8003F23F4907342E8A8
:1035180000310029F6D1226802F1080353E8003F80
:1035280023F00103083242E800310029F3D12023B7
:10353800C4F88030002384F878300320B8E768B3F3
:1035480010B50446C36F03B32423E36722681368E6
:1035580023F001031360636AE3B92046FFF746FDD1
:10356800012811D02268536823F4904353602268DD
:10357800936823F02A0393602268136843F00103D9
:1035880013602046FFF778FF10BD80F87830FDF70C
:103598006FF9D9E72046FFF7BDFEDEE70120704747
:1035A80070B50D4E0D4D761BB61006D0002455F89B
:1035B800043B01349847A642F9D1094E094D761BC0
:1035C80000F0D4F8B61006D0002455F8043B0134B6
:1035D8009847A642F9D170BD146C0008146C000815
:1035E8001C6C0008146C0008830730B548D0541EC2
:1035F800002A3FD0CAB2034601E0013C3AD303F89F
:10360800012B9D07F9D1032C2DD9CDB245EA05250B
:103618000F2C45EA054536D9A4F1100222F00F0C0B
:1036280003F1200EE6444FEA121C03F1100242E9AE
:10363800045542E9025510327245F8D10CF10102E5
:1036480014F00C0F03EB021204F00F0C13D0ACF1C2
:10365800040323F003030433134442F8045B934246
:10366800FBD10CF003042CB1CAB21C4403F8012BA3
:103678009C42FBD130BD64461346002CF4D1F9E7D7
:1036880003461446BFE71A46A446E0E7024B13B1C7
:10369800024800F005B8704700000000B536000881
:1036A800002301461A46184600F01AB838B5084BE8
:1036B800084D5B1B9C1007D0043B1D44013C55F88A
:1036C80004399847002CF9D1BDE8384000F054B8C7
:1036D800206C00081C6C0008704700BF704700BFD2
:1036E8002DE9F047DFF87CA00646DAF80000984696
:1036F8000F469146FFF7F0FF1B4B1B68D3F8484174
:1037080024B365681F2D26DC5EB96B1C0235DAF818
:103718000000636044F82570FFF7E0FF0020BDE873
:10372800F08704EB85010123C1F88890D4F888213B
:10373800AB401A43022EC4F88821C1F80881E4D1AD
:10374800D4F88C211343C4F88C31DEE703F5A67452
:10375800C3F84841D5E7DAF80000FFF7BFFF4FF09C
:10376800FF30DCE738040020086C0008F8B500BF1B
:10377800F8BC08BC9E467047F8B500BFF8BC08BC4A
:043788009E467047A2
:10378C00535049206D6F646520534420636172640B
:10379C0020746573740000004E6F20534420436105
:1037AC0072640000534420496E697420737563631E
:1037BC00657373004E756D6265723A00000000000F
:1037CC0000000000010203040607080900000000C5
:1037DC0001020304A0860100400D0300801A0600BC
:1037EC0000350C0040420F0080841E0000093D0093
:1037FC0000127A000024F40000366E010048E80143
:10380C00006CDC02307800000000000000000000BA
:10381C000000000000000404040404000004000084
:10382C0014140A00000000000000000000000A0A46
:10383C001F0A0A1F0A0A000000040E1505060C14C4
:10384C00150E0400000012150D152E2C2A12000066
:10385C000000040A0A3615152916000002020100A0
:10386C000000000000000000100808040404040418
:10387C0008081000020404080808080804040200E0
:10388C0000000004150E0E150400000000000008D6
:10389C00083E0808000000000000000000000000C6
:1038AC000202010000000000003F000000000000C8
:1038BC0000000000000000000002000000201010BA
:1038CC00080804040202010000000E11111111116C
:1038DC00110E00000000040604040404040E000091
:1038EC0000000E1111080402011F000000000E114F
:1038FC00100C1010110E00000000080C0C0A091F0F
:10390C00081C000000001F01010F1110110E000017
:10391C0000000C12010D1311110E000000001E10FE
:10392C00080804040404000000000E11110E11110B
:10393C00110E000000000E111119161009060000DE
:10394C000000000004000000000400000000000063
:10395C00000400000004040000001008040202042B
:10396C0008100000000000003F003F0000000000B5
:10397C0000000204081010080402000000000E11E0
:10398C00110804040004000000001C22292D2D1D28
:10399C00221C0000000004040C0A0A1E1233000052
:1039AC0000000F12120E1212120F000000001E1156
:1039BC0001010101110E000000000F12121212126F
:1039CC00120F000000001F120A0E0A02121F000044
:1039DC0000001F120A0E0A020207000000001C124F
:1039EC0001013911120C000000003312121E1212C8
:1039FC001233000000001F0404040404041F000020
:103A0C0000003E08080808080808090700003712DB
:103A1C000A060A1212370000000007020202020214
:103A2C00223F000000003B1B1B1B15151535000029
:103A3C0000003B1216161A1A1217000000000E1185
:103A4C0011111111110E000000000F12120E0202C2
:103A5C000207000000000E1111111117190E1800A9
:103A6C0000000F12120E0A121237000000001E1175
:103A7C0001060810110F000000001F1504040404B7
:103A8C00040E00000000331212121212120C00006D
:103A9C0000003312120A0A0C040400000000151571
:103AAC0015150E0A0A0A000000001B0A0A04040A73
:103ABC000A1B000000001B0A0A0A0404040E000082
:103ACC0000001F0908040402121F00001C04040457
:103ADC000404040404041C00000202040404080886
:103AEC00081010000E0808080808080808080E003E
:103AFC00040A0000000000000000000000000000AC
:103B0C00000000000000003F020400000000000064
:103B1C000000000000000000000C121C123C000011
:103B2C0000030202020E1212120E0000000000002E
:103B3C00001C1202120C000000181010101C1212A3
:103B4C00123C000000000000000C121E021C0000C1
:103B5C0000182404041E0404041E000000000000CD
:103B6C00003C120C021C221C00030202020E121258
:103B7C00123700000004040000060404040E0000C8
:103B8C0000080800000C08080808080700030202D7
:103B9C00021A0A060A1300000007040404040404B1
:103BAC00041F000000000000000F15151515000083
:103BBC0000000000000F121212370000000000007D
:103BCC00000C1212120C000000000000000F121268
:103BDC00120E020700000000001C1212121C1038FA
:103BEC0000000000001B060202070000000000009D
:103BFC00001E020C101E000000000004041E040431
:103C0C00041C000000000000001B1212123C0000FB
:103C1C0000000000001B0A0A040400000000000061
:103C2C000015150E0A0A000000000000001B0A0413
:103C3C000A1B000000000000003312120C080403E1
:103C4C0000000000001E0804041E000018080808EC
:103C5C00080C0808080818000808080808080808CC
:103C6C0008080808060404040408040404040600F4
:103C7C001609000000000000000000000000000019
:103C8C000000000000000000000000000000000820
:103C9C0008080808080800001818000000486C24E0
:103CAC0012000000000000000000000000000024D2
:103CBC0024247F1212127F12121200000000081C22
:103CCC002A2A0A0C1828282A2A1C08080000002274
:103CDC00251515152A585454542200000000000CC8
:103CEC001212120A76252911916E000000060604A4
:103CFC000300000000000000000000000040201045
:103D0C0010080808080808101020400000020408D9
:103D1C000810101010101008080402000000000019
:103D2C0008086B1C1C6B0808000000000000000059
:103D3C00080808087F0808080800000000000000B8
:103D4C000000000000000000060604030000000054
:103D5C0000000000FE000000000000000000000059
:103D6C00000000000000000006060000000080407B
:103D7C004020201010080804040202000000001863
:103D8C0024424242424242422418000000000008F1
:103D9C000E08080808080808083E00000000003C4F
:103DAC004242422020100804427E00000000003CE9
:103DBC004242201820404042221C000000000020FB
:103DCC003028242422227E20207800000000007E4F
:103DDC000202021A26404042221C00000000003859
:103DEC002402021A26424242241800000000007EDF
:103DFC002222101008080808080800000000003CE7
:103E0C004242422418244242423C00000000001866
:103E1C002442424264584040241C00000000000030
:103E2C000000181800000000181800000000000026
:103E3C00000000080000000000080804000000401A
:103E4C0020100804020408102040000000000000AC
:103E5C0000007F0000007F00000000000000000256
:103E6C000408102040201008040200000000003C50
:103E7C004242464020101000181800000000001CA0
:103E8C00225A555555552D42221C000000000008A1
:103E9C0008181414243C224242E700000000001FC2
:103EAC002222221E22424242221F00000000007CDD
:103EBC004242010101010142221C00000000001FCE
:103ECC002242424242424242221F00000000003F76
:103EDC004212121E12120242423F00000000003F2A
:103EEC004212121E12120202020700000000003CD5
:103EFC002222010101712122221C0000000000E796
:103F0C00424242427E42424242E700000000003EF2
:103F1C000808080808080808083E00000000007C93
:103F2C0010101010101010101010110F000000774E
:103F3C0022120A0E0A121222227700000000000739
:103F4C000202020202020202427F0000000000771D
:103F5C00363636362A2A2A2A2A6B0000000000E35D
:103F6C0046464A4A52525262624700000000001C08
:103F7C002241414141414141221C00000000003FCF
:103F8C00424242423E020202020700000000001CB4
:103F9C002241414141414D53321C60000000003F21
:103FAC004242423E1212222242C700000000007C14
:103FBC004242020418204042423E00000000007FB2
:103FCC004908080808080808081C0000000000E759
:103FDC004242424242424242423C0000000000E760
:103FEC004242222424141418080800000000006B1C
:103FFC00494949495555362222220000000000E764
:10400C00422424181818242442E7000000000077EA
:10401C002222141408080808081C00000000007E66
:10402C002120101008040442423F000000780808C8
:10403C0008080808080808080808780000000202A8
:10404C00040408080810102020204040001E101006
:10405C00101010101010101010101E00003844001A
:10406C000000000000000000000000000000000044
:10407C000000000000000000000000FF0006080027
:10408C000000000000000000000000000000000024
:10409C000000003C4278444242FC00000000000357
:1040AC000202021A26424242261A000000000000B8
:1040BC000000003844020202443800000000006096
:1040CC00404040784442424264D800000000000066
:1040DC000000003C427E0202423C0000000000F066
:1040EC008808087E08080808083E00000000000048
:1040FC000000007C22221C023C42423C00000003D7
:10410C000202023A4642424242E700000000000C22
:10411C000C00000E08080808083E000000000030E3
:10412C0030000038202020202020221E0000000318
:10413C0002020272120A1612227700000000000E10
:10414C000808080808080808083E000000000000DD
:10415C000000007F9292929292B700000000000043
:10416C000000003B4642424242E7000000000000D3
:10417C000000003C42424242423C00000000000071
:10418C000000001B26424242221E020700000000D3
:10419C000000007844424242447840E000000000B5
:1041AC00000000774C040404041F00000000000011
:1041BC000000007C42023C40423E00000000000037
:1041CC000008083E0808080808300000000000003D
:1041DC00000000634242424262DC0000000000002A
:1041EC00000000E74224241408080000000000002E
:1041FC00000000EB49495555222200000000000048
:10420C000000007624181818246E0000000000002E
:10421C00000000E7422424141808080700000000DE
:10422C000000007E22100808447E000000C0202000
:10423C0020202010202020202020C0001010101042
:10424C00101010101010101010101010000608088C
:10425C000808081008080808080806000C32C200F4
:10426C000000000000000000000000000000000042
:10427C000000000000000000000000000000000032
:10428C000000000000000000000000000000000022
:10429C000000000000000000000000000000000012
:1042AC0000000000600060006000600060006000C2
:1042BC0060004000200020002000000000000000F2
:1042CC0060006000600000000000000000000000C2
:1042DC00600660063003980188004400000000006E
:1042EC0000000000000000000000000000000000C2
:1042FC0000000000000000000000000000000000B2
:10430C00000000001002100210021002FE07FE074F
:10431C0008020801080108010801FE07FE07040154
:10432C000401040104010000000000000000000072
:10433C00000040004000F00158034C03CC034C003B
:10434C0058007000E000C001C00140034C035C0346
:10435C004C034801F0004000400000000000000049
:10436C00000000000E010A01910091009100510023
:10437C0051003A00AE03A002500450044804480413
:10438C0048048402840300000000000000000000C8
:10439C000000000038006C006C006C006C006C00BD
:1043AC002C0098071C011A01330133016301E3004F
:1043BC00C308C6093C070000000000000000000014
:1043CC000C001C001000100008000400000000008D
:1043DC0000000000000000000000000000000000D1
:1043EC0000000000000000000000000000000000C1
:1043FC00000400020001800080004000400020000A
:10440C002000200020002000200020004000400060
:10441C008000800000010002000400000000000089
:10442C0002000400080010001000200020004000D2
:10443C0040004000400040004000400020002000B0
:10444C001000100008000400020000000000000032
:10445C0000000000000000004000C0004000460CBE
:10446C004E0FD001F0015E0F460C400040004000A2
:10447C000000000000000000000000000000000030
:10448C000000000000000000000040004000400060
:10449C0040004000FE0F4000400040004000400043
:1044AC000000000000000000000000000000000000
:1044BC0000000000000000000000000000000000F0
:1044CC0000000000000000000000000000000000E0
:1044DC000C001C001000100008000400000000007C
:1044EC0000000000000000000000000000000000C0
:1044FC0000000000FE0700000000000000000000AB
:10450C00000000000000000000000000000000009F
:10451C00000000000000000000000000000000008F
:10452C00000000000000000000000000000000007F
:10453C001C001C001C00000000000000000000001B
:10454C00000400060002000300010001800080004E
:10455C004000400060002000200010001000080007
:10456C0008000C000400060002000000000000001F
:10457C00000000000000F00098010C030C0306067C
:10458C0006060606060606060606060606060C03BC
:10459C000C039801F0000000000000000000000077
:1045AC0000000000000040007C0060006000600023
:1045BC0060006000600060006000600060006000EF
:1045CC0060006000FC030000000000000000000020
:1045DC00000000000000F80084010203060306033B
:1045EC00000300018001C0006000200010000802E0
:1045FC0004020602FE0300000000000000000000A0
:10460C000000000000007800C600860186018001D1
:10461C008001C0007000800100010003000306034C
:10462C0006038601F80000000000000000000000F6
:10463C0000000000000080018001C001A001A00169
:10464C0090018801880184018201FE0F80018001A4
:10465C0080018001E0070000000000000000000065
:10466C00000000000000FC0304000400040004002F
:10467C000400F4008C01040300030003060306038A
:10468C0082018401F800000000000000000000001E
:10469C00000000000000E00118030C030C000400F3
:1046AC000600E60116030E060606060606060406B6
:1046BC000C021803F00000000000000000000000D5
:1046CC00000000000000F8070C06040204010001C1
:1046DC00000180008000400040004000600060004D
:1046EC00600060006000000000000000000000009E
:1046FC00000000000000F8010C0306060606060682
:10470C000C021C03F000C8010C0306060606060684
:10471C0006060C03F0010000000000000000000081
:10472C00000000000000F0000C010C03060206065D
:10473C000606060606078C0678060006000300032C
:10474C000C018C017800000000000000000000004B
:10475C00000000000000000000000000000000004D
:10476C00E000E000E000000000000000000000009D
:10477C00E000E000E000000000000000000000008D
:10478C00000000000000000000000000000000001D
:10479C00600060000000000000000000000000004D
:1047AC0000006000600040002000200000000000BD
:1047BC000000000000040002000180004000200006
:1047CC0010000800040008001000200040008000C9
:1047DC0000010002000400000000000000000000C6
:1047EC0000000000000000000000000000000000BD
:1047FC00FE07000000000000FE07000000000000A3
:10480C00000000000000000000000000000000009C
:10481C000000000004000800100020004000800090
:10482C000001000200040002000180004000200092
:10483C001000080004000000000000000000000050
:10484C00000000000000E0031806040C040C0C0C23
:10485C000C0C0007800140004000400000000000EC
:10486C00E000E000E000000000000000000000009C
:10487C0000000000E00018030C02CC05640566057E
:10488C00A605B604B604B604B604B602E4010C04DC
:10489C000C021803F00000000000000000000000F3
:1048AC00000000000000600060005000D00090008C
:1048BC009000880088010801F80104030403040235
:1048CC00020202060F0F00000000000000000000B2
:1048DC00000000000000FE008C030C030C030C0312
:1048EC000C038C01FC000C030C020C060C060C06D1
:1048FC000C060C03FE01000000000000000000008C
:10490C00000000000000E00318030C060C04040473
:10491C0006000600060006000600060006040C044D
:10492C000C021803F0000000000000000000000062
:10493C000000000000007F008C010C030C030C062F
:10494C000C060C060C060C060C060C060C060C03CE
:10495C000C038C017F000000000000000000000030
:10496C00000000000000FF03060306040604060016
:10497C0086008600FE00860086008600060006047F
:10498C0006040602FF030000000000000000000007
:10499C00000000000000FF030603060406040600E6
:1049AC0086008600FE008600860086000600060053
:1049BC00060006001F0000000000000000000000C0
:1049CC00000000000000F00018010C020C020402B0
:1049DC000600060006000600C60F060306030C03BD
:1049EC000C031803F00000000000000000000000A1
:1049FC000000000000000F0F06060606060606065D
:104A0C0006060606FE070606060606060606060641
:104A1C00060606060F0F0000000000000000000054
:104A2C00000000000000FC036000600060006000FB
:104A3C00600060006000600060006000600060006A
:104A4C0060006000FC03000000000000000000009B
:104A5C00000000000000F807C000C000C000C0004B
:104A6C00C000C000C000C000C000C000C000C0003A
:104A7C00C000C000C000C60066003C000000000082
:104A8C00000000000000CF038601C600460026008F
:104A9C00160036002E006E004600C6008600860109
:104AAC00060106038F070000000000000000000054
:104ABC000000000000001F000600060006000600B3
:104ACC0006000600060006000600060006000604A6
:104ADC0006040602FF0300000000000000000000B6
:104AEC000000000000000707860386038E038E0378
:104AFC004E034E034A035A035A033A03320332035A
:104B0C0032031203870700000000000000000000C1
:104B1C000000000000008E0F0C021C021C0234026C
:104B2C003402640264024402C402840284038403D7
:104B3C00040304031F02000000000000000000003A
:104B4C00000000000000F00098010C030C020606A7
:104B5C0006060606060606060606060606060C02E7
:104B6C000C039801F00000000000000000000000A1
:104B7C00000000000000FF000603060606060606FD
:104B8C00060606068603FE00060006000600060062
:104B9C00060006001F0000000000000000000000DE
:104BAC00000000000000F00098010C030C02060647
:104BBC0006060606060606060606060676064C02D7
:104BCC00CC039801F00080070003000000000000F7
:104BDC00000000000000FF0106030606060606069C
:104BEC0006060603FE004600C60086008601060384
:104BFC00060306060F0E0000000000000000000077
:104C0C00000000000000F8020C0306020602060079
:104C1C000E003C00F800E0038003000702060206C9
:104C2C0006060C03F001000000000000000000006C
:104C3C00000000000000FE076204610861086000CB
:104C4C006000600060006000600060006000600058
:104C5C0060006000F801000000000000000000008F
:104C6C000000000000001E070C020C020C020C02DB
:104C7C000C020C020C020C020C020C020C020C02B8
:104C8C000C021801F0000000000000000000000001
:104C9C000000000000000F070602040104010C01D3
:104CAC000C0188008800980098005000500070009B
:104CBC003000200020000000000000000000000078
:104CCC00000000000000F70E620442044604460493
:104CDC0064026402E402E4029C029C0198019801C3
:104CEC00880188008800000000000000000000001F
:104CFC000000000000009E070C0108011801900044
:104D0C00B0006000200060006000D00090008801BE
:104D1C00080104038E0700000000000000000000E2
:104D2C000000000000000F0F060404020C02080132
:104D3C001801B800B00070006000600060006000F6
:104D4C0060006000F801000000000000000000009E
:104D5C00000000000000FC070C02060302018001A9
:104D6C0080004000400020002000100018000804C3
:104D7C000C040402FE030000000000000000000010
:104D8C00E003200020002000200020002000200054
:104D9C002000200020002000200020002000200007
:104DAC002000200020002000E00300000000000094
:104DBC0000000000040004000800080010001000AF
:104DCC0010002000200040004000C0008000800047
:104DDC0000010001000200020002000400000000BB
:104DEC007C0040004000400040004000400040007B
:104DFC0040004000400040004000400040004000A7
:104E0C0040004000400040007C00000000006000BA
:104E1C0090000801000000000000000000000000ED
:104E2C000000000000000000000000000000000076
:104E3C000000000000000000000000000000000066
:104E4C000000000000000000000000000000000056
:104E5C000000000000000000000000000000000046
:104E6C0000000000000000000000FF0F0000000028
:104E7C0018006000000000000000000000000000AE
:104E8C000000000000000000000000000000000016
:104E9C000000000000000000000000000000000006
:104EAC0000000000000000000000000000000000F6
:104EBC00F0010C030C030003E0031C030E030603B8
:104ECC0006038E0B7C0E00000000000000000000AA
:104EDC000000000008000E000C000C000C000C0080
:104EEC00CC013C031C060C060C060C060C060C062E
:104EFC000C021C03E4010000000000000000000094
:104F0C000000000000000000000000000000000095
:104F1C00F0008C018C0186010600060006000602DA
:104F2C000C020C01F000000000000000000000006A
:104F3C00000000000002C003000300030003000394
:104F4C0078038C030C03060306030603060306030F
:104F5C0004038C0778010000000000000000000032
:104F6C000000000000000000000000000000000035
:104F7C00E001180308020C060C06FC070C000C00E0
:104F8C0018041802E00100000000000000000000FE
:104F9C00000000000000C003600630063000300046
:104FAC00FE013000300030003000300030003000A6
:104FBC0030003000FC010000000000000000000088
:104FCC0000000000000000000000000000000000D5
:104FDC00F007D8068C018C018C019801F8000C00AC
:104FEC00FC00CC03060306038E03F800000000004F
:104FFC000000000008000E000C000C000C000C005F
:10500C00EC011C030C030C030C030C030C030C032E
:10501C000C030C039E0700000000000000000000C1
:10502C000000000000006000600000000000400074
:10503C007C00600060006000600060006000600048
:10504C0060006000FC030000000000000000000095
:10505C00000000000000C001C001000000000001C1
:10506C00F0018001800180018001800180018001BC
:10507C008001800180018001CC007C0000000000D8
:10508C000000000008000E000C000C000C000C00CE
:10509C008C038C008C004C006C005C008C008C0130
:1050AC000C010C039E070000000000000000000033
:1050BC000000000040007C006000600060006000A8
:1050CC0060006000600060006000600060006000D4
:1050DC0060006000FC030000000000000000000005
:1050EC0000000000000000000000000000000000B4
:1050FC003707EE06660666066606660666066606EA
:10510C0066066606FF0F00000000000000000000AD
:10511C000000000000000000000000000000000083
:10512C00EE011C030C030C030C030C030C030C030B
:10513C000C030C039E0700000000000000000000A0
:10514C000000000000000000000000000000000053
:10515C00F00098010C03060606060606060606066F
:10516C000C030C03F0000000000000000000000025
:10517C000000000000000000000000000000000023
:10518C00EE011C030C060C060C060C060C060C0699
:10519C000C031C03EC010C000C003E000000000092
:1051AC0000000000000000000000000000000000F3
:1051BC0078028C030C03060306030603060306039E
:1051CC0004038C03780300030003C00700000000F5
:1051DC0000000000000000000000000000000000C3
:1051EC009F035806380618001800180018001800FD
:1051FC0018001800FF000000000000000000000074
:10520C000000000000000000000000000000000092
:10521C00F0031C030C020C023800F000C003040362
:10522C0004038C03FC0100000000000000000000DF
:10523C0000000000000000002000200030003000C2
:10524C00FE01300030003000300030003000300003
:10525C0030023002E00100000000000000000000FD
:10526C000000000000000000000000000000080228
:10527C008E030C030C030C030C030C030C030C0328
:10528C000C039C07780100000000000000000000E7
:10529C000000000000000000000000000000000002
:1052AC001E070C020801080118019000B000B000A4
:1052BC006000600020000000000000000000000002
:1052CC0000000000000000000000000000000000D2
:1052DC00F70E6204460464026402EC029C0198011D
:1052EC009801980108000000000000000000000078
:1052FC0000000000000000000000000000000000A2
:10530C00BC0718011001B00060006000E0009000C4
:10531C00080108039E0700000000000000000000C8
:10532C000000000000000000000000000000000071
:10533C009E0708010801080190009000B000600071
:10534C00600060002000200024001C000000000011
:10535C000000000000000000000000000000000041
:10536C00FC018401C40044006000200030001802DD
:10537C0008020C03FC01000000000000000000000B
:10538C00000380008000800080008000800080008E
:10539C0080004000200040008000800080008000E1
:1053AC00800080008000800000030000400040006E
:1053BC0040004000400040004000400040004000E1
:1053CC0040004000400040004000400040004000D1
:1053DC004000400040004000400040000000000041
:1053EC000C00100010001000100010001000100035
:1053FC0010002000400020001000100010001000D1
:10540C0010001000100010000C00000000001C0028
:10541C002204C20480030000000000000000000011
:10542C000000000000000000000000000000000070
:10543C000000000000000000000000000000000060
:10544C000000000000000000000000000000000050
:10545C000000000000000000000000000000000040
:10546C000000000000000000000000000000000030
:10547C000000000000000000000000000000000020
:10548C00000000000000C001C001C001C001C0014B
:10549C00C001C0018000800080008000800080007E
:1054AC00800000000000000000008001C003C00369
:1054BC00800100000000000000000000000000005F
:1054CC000000E01CE01CF01E700E380718030801E9
:1054DC00840000000000000000000000000000003C
:1054EC0000000000000000000000000000000000B0
:1054FC0000000000000000000000000000000000A0
:10550C0000000000000000002010201020102010CF
:10551C002010FE7FFE7F10081008100810081008DD
:10552C0010081008FE7FFE7F080408040804080415
:10553C000804000000000000000000000000000053
:10554C000000000000010001C00760191031183183
:10555C001839183938017001E001C0038007000FB9
:10556C00001D003900311C311C310C310C11180D8F
:10557C00E007000100010001000000000000000035
:10558C0000000000000000001C1036186308630CBB
:10559C0063046304630263026301361D9C3780223B
:1055AC0080634063406320632063306310221836AD
:1055BC00081C0000000000000000000000000000BB
:1055CC000000000000000000F00098018C018C012C
:1055DC008C018C018C00CC007800183E1C0836081D
:1055EC00320863046304C304C303834306438E2657
:1055FC00781C00000000000000000000000000000B
:10560C0000001C003C003C003000300010000C007E
:10561C000600000000000000000000000000000078
:10562C00000000000000000000000000000000006E
:10563C00000000000000000000000000000000005E
:10564C0000000040002000100008000C00040006C0
:10565C0000030003000380018001800180018001B0
:10566C008001800180010003000300030006000696
:10567C00000C00080010002000400000000000009A
:10568C000000020004000800100030002000600040
:10569C00C000C000C0008001800180018001800139
:1056AC00800180018001C000C000C000600060006B
:1056BC003000100008000400020000000000000090
:1056CC00000000000000000000000000000180034A
:1056DC00800300011C713C79783DC0070001C007B4
:1056EC00783D3C791C71000180038003800100002F
:1056FC00000000000000000000000000000000009E
:10570C00000000000000000000000000000000018C
:10571C00000100010001000100010001FC7F0001FB
:10572C000001000100010001000100010000000067
:10573C00000000000000000000000000000000005D
:10574C00000000000000000000000000000000004D
:10575C00000000000000000000000000000000003D
:10576C000000000000000000000000001C003C00D5
:10577C003C003000300010000C000600000000005F
:10578C00000000000000000000000000000000000D
:10579C00000000000000000000000000FE7F000080
:1057AC0000000000000000000000000000000000ED
:1057BC0000000000000000000000000000000000DD
:1057CC0000000000000000000000000000000000CD
:1057DC0000000000000000000000000000000000BD
:1057EC000000000000000000000018003C003C001D
:1057FC001800000000000000000000000000000085
:10580C00000000400060002000300010001800086C
:10581C00000C00040006000200030001800180005F
:10582C00C00040006000200030001000180008008C
:10583C000C00040006000200000000000000000044
:10584C000000000000000000C007600C3018183089
:10585C00183018200C600C600C600C600C600C6034
:10586C000C600C600C601820183018303018600C6C
:10587C00C007000000000000000000000000000055
:10588C00000000000000000000018001F801800110
:10589C0080018001800180018001800180018001F4
:1058AC008001800180018001800180018001C003A2
:1058BC00F81F0000000000000000000000000000C5
:1058CC000000000000000000E007101C0818043065
:1058DC0004300C300C3000300018000800040002BA
:1058EC000001800040002020102008200430FC1F04
:1058FC00FC1F000000000000000000000000000081
:10590C000000000000000000E003180E0C0C0C1846
:10591C000C180C180018000C0006C003000E001820
:10592C000010003000300C300C300C100C18180C1F
:10593C00E003000000000000000000000000000078
:10594C000000000000000000000C000E000E000F14
:10595C00800E800E400E600E200E100E100E080EE3
:10596C00040E040EFE7F000E000E000E000E000E44
:10597C00000EC07F000000000000000000000000CE
:10598C000000000000000000F03FF03F100010008D
:10599C00100008000800C807280C18180810003060
:1059AC000030003000300C300C3004180418080C97
:1059BC00F0030000000000000000000000000000E8
:1059CC000000000000000000800FC01020301030DC
:1059DC001800180008000C008C0F6C183C301C6070
:1059EC000C600C600C600C60186018203030601873
:1059FC00C0070000000000000000000000000000D4
:105A0C000000000000000000F83FF83F1C100C08DC
:105A1C00040804040004000200020001000100015B
:105A2C00800080008000C000C000C000C000C0002A
:105A3C00C00000000000000000000000000000009A
:105A4C000000000000000000E007300C18180C30BB
:105A5C000C300C301C3038187008E007B007180EEA
:105A6C000C1C063806300630063006300C18180CA4
:105A7C00E003000000000000000000000000000037
:105A8C000000000000000000E00318040C080C18D3
:105A9C000610063006300630063006380C3C183638
:105AAC00F03100300018001800180C0C0C060C0318
:105ABC00F0010000000000000000000000000000E9
:105ACC0000000000000000000000000000000000CA
